:1000000062C17CC17BC17AC179C178C177C176C137
:1000100075C174C173C172C171C170C16FC16EC14C
:100020006DC16CC16BC16AC169C168C167C166C17C
:10003000D7C164C103C29BC29AC299C298C297C277
:1000400096C295C2FBC193C292C291C290C28FC2A6
:100050008EC28DC20DC28BC28AC289C288C287C2BB
:1000600086C285C226C283C282C281C280C27FC2CA
:100070007EC27DC222C27BC27AC279C278C277C2F6
:1000800076C275C23EC273C272C271C270C26FC202
:100090006EC26DC26CC26BC26AC269C268C267C2FC
:1000A00066C265C232C263C262C261C260C25FC25E
:1000B0005EC25DC25CC25BC25AC259C258C257C25C
:1000C00056C255C22AC20000C1C081C1400101C34D
:1000D000C003800241C201C6C006800741C70005B7
:1000E000C1C581C4400401CCC00C800D41CD000FBE
:1000F000C1CF81CE400E000AC1CA81CB400B01C9DD
:10010000C009800841C801D8C018801941D9001B16
:10011000C1DB81DA401A001EC1DE81DF401F01DD34
:10012000C01D801C41DC0014C1D481D5401501D70D
:10013000C017801641D601D2C012801341D30011DE
:10014000C1D181D0401001F0C030803141F1003385
:10015000C1F381F240320036C1F681F7403701F534
:10016000C035803441F4003CC1FC81FD403D01FFBD
:10017000C03F803E41FE01FAC03A803B41FB00395E
:10018000C1F981F840380028C1E881E9402901EB34
:10019000C02B802A41EA01EEC02E802F41EF002DB6
:1001A000C1ED81EC402C01E4C024802541E500270D
:1001B000C1E781E640260022C1E281E3402301E15C
:1001C000C021802041E001A0C060806141A10063A6
:1001D000C1A381A240620066C1A681A7406701A5B4
:1001E000C065806441A4006CC1AC81AD406D01AFBD
:1001F000C06F806E41AE01AAC06A806B41AB0069DE
:10020000C1A981A840680078C1B881B9407901BB13
:10021000C07B807A41BA01BEC07E807F41BF007D35
:10022000C1BD81BC407C01B4C074807541B500770C
:10023000C1B781B640760072C1B281B3407301B1DB
:10024000C071807041B00050C190819140510193C4
:10025000C053805241920196C05680574197005535
:10026000C19581944054019CC05C805D419D005FBC
:10027000C19F819E405E005AC19A819B405B01995B
:10028000C059805841980188C04880494189004B35
:10029000C18B818A404A004EC18E818F404F018DB3
:1002A000C04D804C418C0044C1848185404501870C
:1002B000C047804641860182C0428043418300415D
:1002C000C1818180404011241FBECFEFD2E0DEBF4C
:1002D000CDBF11E0A0E0B1E0E2E6F8E002C0059099
:1002E0000D92A230B107D9F721E0A2E0B1E001C040
:1002F0001D92A333B207E1F731D0B1C281CE84B1F0
:100300008E6084B98AB188668AB984B5836A84BDEF
:1003100085B5816085BD17BC18BCE0E8F0E0808140
:10032000816A8083E1E8F0E08081896080831092B7
:100330008B0010928A001092890010928800E0EBE6
:10034000F0E08081836A8083E1EBF0E0808181606E
:1003500080831092B3001092B4000895D0DF809192
:1003600000018093BA0088E68093B80085E480930A
:10037000BC007894FFCFCF92DF92EF92FF9266237A
:10038000D9F0DC01AC01460F511D80E090E0292F2F
:1003900033276D91FC01E627FF27EE0FFF1FEA537D
:1003A000FF4FC590D590E590F490C9018C259D250F
:1003B000A417B50761F702C080E090E0FF90EF90CE
:1003C000DF90CF9008951092020185EA8093BC00DF
:1003D000089581E08093020185EA8093BC0008952E
:1003E0001F920F920FB60F921124AF92BF92CF922D
:1003F000DF92EF92FF920F931F932F933F934F93B0
:100400005F936F937F938F939F93AF93BF93EF937C
:10041000FF93CF93DF93CDB7DEB70DB71EB78091B3
:10042000B900E82FE87F8E2F90E0FC013897E9347F
:10043000F10508F09CC0E65EFF4F0994809102012F
:10044000811108C080910A018093BB0085EC8093E4
:10045000BC008DC080910701882309F488C0809179
:100460000A018F5F8093BB0085EC8093BC007FC046
:100470009091090180910801981750F0809107012F
:10048000882311F0A0DF73C085E98093BC006FC0A2
:10049000E0910901F0E0E15EFE4F80818093BB00B6
:1004A000809109018F5F8093090185EC8093BC00E6
:1004B0005EC085E98093BC005AC09091090180918B
:1004C0000801981740F4E0910901F0E0E15EFE4F69
:1004D00080818093BB00809109018F5F8093090127
:1004E0009091090180910801891708F040C080911E
:1004F0000701882311F06DDF3AC085E98093BC00C5
:1005000036C085E98093BC0032C01092050110927C
:10051000040185EC8093BC002AC080910501811103
:1005200004C08091BB0080930601909105018091E9
:100530000601981758F4E0910501F0E08091BB00A6
:10054000E55FFE4F808385EC8093BC0080910501C0
:100550008F5F8093050190910501809106019817A6
:1005600030F081E08093040185E98093BC008091A4
:10057000B900887F883AD9F128F4803651F0803864
:1005800081F048C1883B09F415C1883C09F43FC19A
:1005900041C1109205011092040185EC8093BC00CA
:1005A00039C180910501811104C08091BB00809305
:1005B00006019091050180910601981740F4E091A1
:1005C0000501F0E08091BB00E55FFE4F80838091E4
:1005D00005018F5F809305019091050180910601CF
:1005E000981708F417C181E08093040113C181E0DA
:1005F0008093030180910B01823008F40BC1EDB6AA
:10060000FEB660910601A62EB12C8DB79EB78A1951
:100610009B090FB6F8949EBF0FBE8DBF4DB75EB756
:100620004F5F5F4F65011C141D046CF4FA0120E05C
:1006300030E0D901A55FBE4F9C9191932F5F3F4F52
:100640002C153D05B1F780910C01843109F09EC055
:10065000A40EB51EF5013197C080D12CDC2CCC2422
:1006600031978081C82A6250CA0185DE8C159D05AC
:1006700009F07DC0EBE0F1E0828187BD82818111CC
:1006800004C084B58F7784BD03C084B5806884BD01
:10069000EBE0F1E0838190E0909389008093880003
:1006A0008381811106C0E0E8F0E080818F7780834C
:1006B00005C0E0E8F0E0808180688083EBE0F1E055
:1006C00084818093B3008481811106C0E0EBF0E067
:1006D00080818F77808305C0E0EBF0E080818068C7
:1006E0008083EBE0F1E085818093B4008581811106
:1006F00006C0E0EBF0E080818F7D808305C0E0EBF9
:10070000F0E0808180628083EBE0F1E0868190E020
:1007100090938B0080938A008681811106C0E0E867
:10072000F0E080818F7D808305C0E0E8F0E080818B
:1007300080628083EBE0F1E0878188BD8781811151
:1007400004C084B58F7D84BD03C084B5806284BD40
:1007500082E080930801EFE1F1E0808381E1818311
:1007600081E08093090180818093BB001DC082E0FD
:1007700080930801EFE1F1E0808381E2818381E0F1
:100780008093090180818093BB000EC082E080933A
:100790000801EFE1F1E0808381E2818381E08093D1
:1007A000090180818093BB000FB6F894FEBE0FBE96
:1007B000EDBE30C080910301882329F19091090199
:1007C000809108019817D8F4E0910901F0E0E15E0A
:1007D000FE4F80818093BB00209109018091080128
:1007E00030E090E001972817390719F485E88093E5
:1007F000BC00809109018F5F809309010BC08FEFCE
:100800008093BB0007C08FEF8093BB0003C085ECD3
:100810008093BC00ECEBF0E08081806880830FB6B1
:10082000F8941EBF0FBE0DBFDF91CF91FF91EF91E6
:10083000BF91AF919F918F917F916F915F914F91F8
:100840003F912F911F910F91FF90EF90DF90CF90EC
:10085000BF90AF900F900FBE0F901F901895F89417
:02086000FFCFC8
:02086200A000F4
:00000001FF
