S01700004763634170706C69636174696F6E332E7372656359
S113000019C028C027C026C025C024C023C022C0D0
S113001021C0FDC01FC01EC01DC0E5C01BC01AC04A
S1130020D4C018C017C016C015C014C013C012C065
S113003012C010C011241FBECFEFD2E0DEBFCDBF6F
S113004021E0A0E0B1E001C01D92A130B207E1F7C8
S11300502BD138C1D5CF1F920F920FB60F92112416
S11300608F939F93EF93FF938091B900803611F49F
S1130070109200018091B900803809F098C08091F5
S113008000018F5F8093000180910001813081F431
S1130090EBEBF0E08081855687BD8081811104C03F
S11300A084B58F7784BD83C084B5806884BD7FC0E8
S11300B0809100018230C9F4EBEBF0E0808190E0A4
S11300C085569F4F90938900809388008081811189
S11300D006C0E0E8F0E080818F77808368C0E0E8C4
S11300E0F0E080818068808362C080910001833069
S11300F0A9F4EBEBF0E0808185568093B300808116
S1130100811106C0E0EBF0E080818F7780834FC0DF
S1130110E0EBF0E080818068808349C08091000139
S11301208430A9F4EBEBF0E0808185568093B40031
S11301308081811106C0E0EBF0E080818F7D8083B7
S113014036C0E0EBF0E080818062808330C0809133
S113015000018530C9F4EBEBF0E0808190E0855636
S11301609F4F90938B0080938A008081811106C0F9
S1130170E0E8F0E080818F7D808319C0E0E8F0E062
S113018080818062808313C080910001863079F47D
S1130190EBEBF0E08081855688BD8081811104C03D
S11301A084B58F7D84BD03C084B5806284BDECEBCF
S11301B0F0E0808180688083FF91EF919F918F911F
S11301C00F900FBE0F901F9018951F920F920FB6AD
S11301D00F9211248F938BE986BD8F910F900FBEE0
S11301E00F901F9018951F920F920FB60F92112423
S11301F08F939F938BE990E0909385008093840084
S11302009F918F910F900FBE0F901F9018951F9282
S11302100F920FB60F9211248F938BE98093B20043
S11302208F910F900FBE0F901F90189584B18E6020
S113023084B98AB188668AB984B5836A84BD85B570
S1130240816085BD17BC18BCE0E8F0E08081816A5C
S11302508083E1E8F0E080818960808310928B00E4
S113026010928A001092890010928800E0EBF0E06E
S11302708081836A8083E1EBF0E080818160808308
S11302801092B3001092B400EEE6F0E08081816039
S11302908083EFE6F0E0808181608083E0E7F0E036
S11302A08081816080830895109200017894BEDF7C
S11302B088E68093B80080EA8093BA0085E480934E
S10B02C0BC00FFCFF894FFCF4E
S9030000FC
