:100000006EC088C087C086C085C084C083C082C0DF
:1000100081C067C17FC015C27DC07CC07BC07AC073
:1000200079C01AC877C0D1C1EBC1D3C1D6C1E4C170
:10003000EBC1D6C1E9C1D8C1E7C1DAC1E5C1E4C1AC
:10004000E3C1E2C1E1C1E0C1DFC1BBC11EC8B1C8AB
:10005000B0C8AFC8AEC8ADC8ACC8ABC816C8A9C890
:10006000A8C8A7C8A6C8A5C8A4C8A3C824C8A1C8AA
:10007000A0C89FC89EC89DC89CC89BC83DC899C8B9
:1000800098C897C896C895C894C893C838C891C8E6
:1000900090C88FC88EC88DC88CC88BC82DC889C819
:1000A00088C887C886C885C884C883C882C881C8EC
:1000B00080C87FC87EC87DC87CC87BC846C879C850
:1000C00078C877C876C875C874C873C872C871C84C
:1000D00070C86FC86EC86DC86CC86BC83DC81124A5
:1000E0001FBECFE5D4E0DEBFCDBF12E0A0E6B0E09A
:1000F000E6ECF5E102C005900D92AC36B107D9F7F8
:1001000022E0ACE6B2E001C01D92A63CB207E1F7E6
:10011000FAD557CA75CFE199FECF9FBB8EBBE09A47
:100120008DB308951F93CF93DF93EC01CE01F3DFDE
:10013000182FCE01F0DF1813F9CFDF91CF911F9167
:100140000895E199FECF9FBB8EBB6DBBF894E29AF8
:10015000E19A789408950F931F93CF938C01C62F43
:1001600003C06C2FC801EDDFC801D5DF8C13F9CFB8
:10017000CF911F910F9108953E9A83E886B9089513
:1001800097B1907F892B87B9369A3699FECF369AE8
:100190003699FECF84B125B190E0922B08958FE27D
:1001A00089B910BC80B5866880BD8AB188698AB972
:1001B0000895CF93DF93E0DF83B7856083BF89B76E
:1001C000816089BFAB9AA39A81B38C6081BBE7DF62
:1001D00088E680B985E886BF8FB5816A8FBD8EB508
:1001E00089608EBD87B3866087BB109265001092D0
:1001F0006400109267001092660088E190E092DF40
:1002000090E0909367008093660089E190E08ADF38
:10021000209166003091670040E2849FC001112464
:10022000282B392B30936700209366008AE190E0F9
:1002300079DF90E090936500809364008BE190E01B
:1002400071DF209164003091650040E2849FC0011D
:100250001124282B392B3093650020936400C0E0D3
:10026000D0E0FE01EB57FD4F1082CE015BDFFE01B7
:10027000EA56FD4F80832196C830D10591F7109240
:1002800079027894DF91CF9108956623C9F0DC015B
:100290009C01260F311DB90180E090E0292F332702
:1002A0004D91FC01E427FF27EE0FFF1FE459FF4F9C
:1002B0008081918182279327A617B70779F7089540
:1002C00080E090E00895AB988FEF97E40197F1F705
:1002D00000C00000AB9A0895F6DF81B5886081BD4B
:1002E00008951F920F920FB60F9211242F933F93F0
:1002F0004F935F936F937F938F939F93AF93BF932E
:10030000EF93FF9381E08093710260916900709197
:100310006A00072E000C880B990BF3D720E030E819
:1003200042E051E454D718164CF080916900909146
:100330006A00019690936A008093690080916D0233
:100340008F5F80936D0280916E028F5F80936E024B
:10035000809179028F5F80937902809177029091EA
:1003600078020196909378028093770280917902C7
:10037000893708F0B1DF809177029091780281325D
:1003800093400CF0A9DF90916D028091680089176D
:1003900008F042C010926D0280916C028823C1F176
:1003A000839B02C0939801C0939AE09168008E2FBE
:1003B00090E0FC013297E331F10530F5ED5EFF4F3F
:1003C000099482E08093680027C084E080936800ED
:1003D00023C085E0809368001FC088E08093680098
:1003E0008AE08093680018C08CE08093680014C095
:1003F00086E08093680010C083E0809368000CC0A2
:1004000084E18093680008C082E08093680004C0A3
:10041000939884E680936800FF91EF91BF91AF912C
:100420009F918F917F916F915F914F913F912F910C
:100430000F900FBE0F901F9018955D9BFECF8CB94B
:1004400008951F920F920FB60F9211248F929F92D0
:10045000AF92BF92CF92DF92EF92FF920F931F93D2
:100460002F933F934F935F936F937F938F939F93BC
:10047000AF93BF93EF93FF93CF93DF93CDB7DEB7E7
:100480002897DEBFCDBF8CB18F3F09F071C01092AD
:1004900078021092770210927A028DE7CEDF2FEF6A
:1004A0004FE382E0215040408040E1F700C000006F
:1004B00086E9C3DF9FEFEFE3F2E09150E040F040C8
:1004C000E1F700C000008AE0B8DF8FEF97E4019702
:1004D000F1F700C0000084E1B0DFEFEFF7E43197FF
:1004E000F1F700C000008EE1A8DF8FEF97E40197DD
:1004F000F1F700C0000088E2A0DFEFEFF7E43197EA
:10050000F1F700C0000082E398DF8FEF97E40197D6
:10051000F1F700C000008CE390DFEFEFF7E43197D4
:10052000F1F700C0000086E488DF8FEF97E40197C1
:10053000F1F700C0000080E580DFEFEFF7E43197CE
:10054000F1F700C0000083E278DF8FEF97E40197B6
:10055000F1F700C0000084E270DFEFEFF7E43197BD
:10056000F1F700C000001092780210927702CEC21C
:100570008CB18B3661F4109278021092770281E090
:1005800080937A0210927B028BE657DFBFC28CB158
:100590008D3761F4109278021092770282E0809396
:1005A0007A0210927B028DE748DFB0C28CB18E36A2
:1005B00009F05DC0109278021092770210927A02D0
:1005C0003CDFCE0101967C016C0100E010E0C80127
:1005D000A2DD682F70E080E090E091D623E333E362
:1005E00043E250E4F8D5A4D75ED6F60161936F01DB
:1005F0000F5F1F4F0830110551F75E01F9E0AF0E94
:10060000B11CF70100E0D12C10E0919190FF02C0E5
:100610001F5F0F5F91FF02C01F5FD39492FF02C064
:100620001F5F0F5F93FF02C01F5FD39494FF02C050
:100630001F5F0F5F95FF02C01F5FD39496FF02C03C
:100640001F5F0F5F992314F41F5FD394EA15FB0516
:10065000E1F6F70181917F01F0DEAE14BF04C9F726
:10066000812FEBDE8D2DE9DE802FE7DE4FC28CB1CE
:10067000833709F0BEC01092780210927702109270
:100680007A02DBDE80E07CDD893791052CF09093E7
:1006900075028093740204C0109275021092740265
:1006A00081E06EDD893791052CF090937302809381
:1006B000720204C01092730210927202809074024F
:1006C00090907502882D8F73C0907402D09075023F
:1006D000F0ECCF22FFE0DF220C2CCD2C000CCC1C48
:1006E000DD08000CCC1CDD1CA0907202B0907302DF
:1006F0001A2D1F73E0907202F090730220ECE22238
:100700002FE0F2220E2CEF2C000CEE1CFF08000C48
:10071000EE1CFF1C92DE8C2D90DE812F8EDE8E2D46
:100720008CDE182D117081FE04C081E0810F01E084
:1007300002C0812F00E082FE02C08F5F1F5F83FE38
:1007400002C08F5F0F5F84FE02C08F5F1F5F85FE58
:1007500002C08F5F0F5FC0FE02C08F5F1F5FC1FED0
:1007600002C08F5F0F5FC2FE02C08F5F1F5FC3FEBC
:1007700002C08F5F0F5FC4FE02C08F5F1F5FC5FEA8
:1007800002C08F5F0F5FA0FE02C08F5F1F5FA1FEE0
:1007900002C08F5F0F5FA2FE02C08F5F1F5FA3FECC
:1007A00002C08F5F0F5FA4FE02C08F5F1F5FA5FEB8
:1007B00002C08F5F0F5FE0FE02C08F5F1F5FE1FE30
:1007C00002C08F5F0F5FE2FE02C08F5F1F5FE3FE1C
:1007D00002C08F5F0F5FE4FE02C08F5F1F5FE5FE08
:1007E00002C08F5F0F5F29DE802F27DE812F25DE7D
:1007F0008DC18CB1863709F09AC0109278021092A0
:10080000770210927A0219DE80906600909067005D
:10081000882D8F71C0906600D090670040EEC42292
:1008200043E0D422D694C794D694C794D694C79460
:10083000D694C794D694C794A0906400B0906500F5
:100840001A2D1F71E0906400F090650090EEE9228F
:1008500093E0F922F694E794F694E794F694E794FB
:10086000F694E794F694E794E8DD8C2DE6DD812F8D
:10087000E4DD8E2DE2DD182D117081FE04C081E0D3
:10088000810F01E002C0812F00E082FE02C08F5F75
:100890001F5F83FE02C08F5F0F5F84FE02C08F5F09
:1008A0001F5F96013327C0FE02C08F5F1F5F21FFCD
:1008B00002C08F5F0F5F22FF02C08F5F1F5F23FFA9
:1008C00002C08F5F0F5F24FF02C08F5F1F5FA0FE1B
:1008D00002C08F5F1F5FA1FE02C08F5F0F5FA2FE8D
:1008E00002C08F5F1F5FA3FE02C08F5F0F5FA4FE79
:1008F00002C08F5F1F5F97013327E0FE02C08F5F4A
:100900001F5F21FF02C08F5F0F5F22FF02C08F5F5A
:100910001F5F23FF02C08F5F0F5F24FF02C08F5F46
:100920001F5F8BDD802F89DD812F87DDEFC08CB1CC
:10093000883799F410927802109277027EDD83E076
:1009400080937A021092610010926000109263000E
:100950001092620010927B02D9C08CB1853608F0EB
:10096000D5C080917A02813069F510927802109298
:10097000770200917B0210E06CB170E080E090E0C3
:10098000BED423E333E343E250E46FD5D1D58BD417
:10099000F801EA56FD4F608380917B028F5F809360
:1009A0007B0280917B02883031F48CED46DD109221
:1009B0007A0210927B0210927802109277028CB128
:1009C0003CDDA4C080917A02823081F510927802D9
:1009D0001092770200917B0210E06CB170E080E031
:1009E00090E08DD423E333E343E250E43ED5A0D539
:1009F0005AD4F801E257FD4F608380917B028F5FEC
:100A000080937B0280917B02883049F48CED15DD68
:100A100010927A0210927B0281E080937002109211
:100A20007802109277028CB108DD70C080917A0252
:100A3000833009F06BC01092780210927702809197
:100A40007B0281110CC08CB190E090936300809385
:100A5000620080917B028F5F80937B0255C0809102
:100A60007B028130A9F42CB18091620090916300E7
:100A7000E0E42E9F90011124822B932B909363002E
:100A80008093620080917B028F5F80937B023CC0E9
:100A900080917B02823061F48CB190E09093610090
:100AA0008093600080917B028F5F80937B022CC0DB
:100AB00080917B02833041F58CEDBFDC2CB18091BD
:100AC000600090916100F0E42F9F90011124822B2F
:100AD000932B9093610080936000809162009091CD
:100AE000630090936700809366008091600090910E
:100AF0006100909365008093640081E080936F02B1
:100B000010927A0210927B028CB197DC28960FB675
:100B1000F894DEBF0FBECDBFDF91CF91FF91EF9173
:100B2000BF91AF919F918F917F916F915F914F9105
:100B30003F912F911F910F91FF90EF90DF90CF90F9
:100B4000BF90AF909F908F900F900FBE0F901F900F
:100B5000189580938D02609380028091B2028093F9
:100B600081021092820285E986BF06B607FCFDCF9E
:100B700010927C0285EA86BF0895CF93DF93CDB7AC
:100B8000DEB72A970FB6F894DEBF0FBECDBF8AE05E
:100B900080938102898384E18A8310927902809113
:100BA0008602823010F41B8203C0809186028B8300
:100BB00080918702823010F41C8203C080918702EA
:100BC0008C8380918802823010F41D8203C0809152
:100BD00088028D8380918902823010F41E8203C0C6
:100BE000809189028E8380918A02823010F41F8264
:100BF00003C080918A028F8380918B02823010F42F
:100C0000188603C080918B02888768E0CE01019628
:100C10003CDB89879A8780918102882381F0FE01DD
:100C2000319680E090E02191DC01AE54BD4F2C93D1
:100C300001962091810230E082179307A4F310926D
:100C4000790280916B0061E070E090E082DF1092A9
:100C50006A001092690080E02A960FB6F894DEBF11
:100C60000FBECDBFDF91CF910895209174023091D6
:100C7000750280916600909167002817390770F41B
:100C8000209172023091730280916400909165000E
:100C90002817390770F080E090E002C080E090E013
:100CA0002FEFFC01EB57FD4F208301968830910513
:100CB000C1F71092790280918502823030F41BBC1A
:100CC0001ABC8FB58F778FBD08C08091850290E0E8
:100CD0009BBD8ABD8FB580688FBD80918C028230AC
:100CE00030F419BC18BC8FB58F7D8FBD08C08091C2
:100CF0008C0290E099BD88BD8FB580628FBD109247
:100D000079023BDF0895CF93DF93CDB7DEB751DA99
:100D10000F2EFEE9CF2EF2E0DF2EF02DE12CF12C8C
:100D2000992493940F2EF7E8AF2EF9E7BF2EF02DFC
:100D30001092790280917602813009F086C195DFA8
:100D40001092760282C1970140E0F901EB57FD4F06
:100D50009081F901EA56FD4F8081981709F448C047
:100D6000F901EB57FD4F9081F901EA56FD4F808163
:100D70008917F8F4F901EB57FD4F8081F901EA5624
:100D8000FD4F408190E0841B9109029744F0F901E6
:100D9000EB57FD4F808182508083492D29C0F90196
:100DA000EA56FD4F8081F901EB57FD4F8083492DB5
:100DB0001FC0F901EA56FD4F8081F901EB57FD4F45
:100DC000408190E0841B91091816190644F4F9013A
:100DD000EB57FD4F80818F5F8083492D09C0F9015A
:100DE000EA56FD4F8081F901EB57FD4F8083492D75
:100DF0002F5F3F4F2830310509F0A7CF4111909266
:100E00007602109271021092790280917002811123
:100E100007C01EC010927902809170028823C1F031
:100E20008701F801E257FD4F8081823020F460E0B5
:100E3000C80191D906C0F801E257FD4F6081C80191
:100E40008AD90F5F1F4F0830110559F710927002B1
:100E50001092790280916F028823A1F1609166005F
:100E6000709167006F7188E190E075D960916600BC
:100E700070916700607E7370769567957295629544
:100E80006F7067277F70672789E190E064D9609170
:100E90006400709165006F718AE190E05CD96091A7
:100EA000640070916500607E7370769567957295A9
:100EB00062956F7067277F7067278BE190E04BD951
:100EC00010926F021092790280916E028234E8F1E2
:100ED00010926E0280E054D9883823E092072CF4F7
:100EE000909375028093740204C0F0927502E092B0
:100EF0007402892D45D98838E3E09E072CF490933D
:100F000073028093720204C0F0927302E092720244
:100F10002091740230917502809166009091670073
:100F20002817390758F4209172023091730280918A
:100F30006400909165002817390728F09092760296
:100F400090926C0202C010926C0210927902809111
:100F5000690090916A0087389947E1F060916900D3
:100F600070916A00072E000C880B990BCAD120E003
:100F700030E842E051E475D2882364F09092760222
:100F8000809184028F5F80938402809183028F5FBF
:100F9000809383021092790280917D02882309F464
:100FA00046C0F6018081823008F43FC06DB77EB73D
:100FB00040917F0250E08DB79EB7841B950B0FB612
:100FC000F8949EBF0FBE8DBF0DB71EB70F5F1F4FAA
:100FD0001416150664F4F8019701D901A256BD4F05
:100FE0009C9191932F5F3F4F24173507B1F7F8017C
:100FF0008181813149F41092840210928302B0926F
:101000006A00A09269000CC0809184028F5F809377
:101010008402809183028F5F809383029092760294
:101020000FB6F8947EBF0FBE6DBF10927D02809107
:101030008402843018F047D9109284028091830290
:101040008A3008F475CE48D973CE10927902809117
:101050007102811178CEDECE1F920F920FB60F92E1
:1010600011248F939F93AF93BF93EF93FF9381B11D
:10107000E82FE87F8E2F90E0FC013897E934F105E6
:1010800008F097C0EA5DFF4F099480917C028111BE
:1010900006C080918D0283B985EC86BF8AC080919D
:1010A0008002882309F485C080918D028F5F83B907
:1010B00085EC86BF7EC09091820280918102981754
:1010C00060F080918002882329F010927C0285EAEA
:1010D00086BF6FC085E986BF6CC0E0918202F0E0F8
:1010E000EE54FD4F808183B9809182028F5F80939F
:1010F000820285EC86BF5DC085E986BF5AC09091AB
:10110000820280918102981738F4E0918202F0E027
:10111000EE54FD4F808183B9809182028F5F80936E
:1011200082029091820280918102891708F041C069
:1011300080918002882331F081E080937C0285EAEF
:1011400086BF37C085E986BF34C010927E021092F8
:101150007D0285EC86BF2DC080917E0281110AC080
:1011600083B18F3F21F083B180937F0203C081E080
:1011700080937F0290917E0280917F02981748F4BD
:10118000E0917E02F0E083B1E256FD4F808385EC72
:1011900086BF80917E028F5F80937E0290917E0257
:1011A00080917F02981728F081E080937D0285E985
:1011B00086BF86B7806886BFFF91EF91BF91AF91E0
:1011C0009F918F910F900FBE0F901F901895D4D0C4
:1011D00008F481E008950CD00AC102D140F0F9D0A2
:1011E00030F021F45F3F19F0EBC0511134C1EEC073
:1011F0000FD198F39923C9F35523B1F3951B550BE0
:10120000BB27AA2762177307840738F09F5F5F4FD9
:10121000220F331F441FAA1FA9F333D00E2E3AF01A
:10122000E0E830D091505040E695001CCAF729D034
:10123000FE2F27D0660F771F881FBB1F2617370783
:101240004807AB07B0E809F0BB0B802DBF01FF27B3
:1012500093585F4F2AF09E3F510568F0B1C0FBC024
:101260005F3FECF3983EDCF3869577956795B795ED
:10127000F7959F5FC9F7880F911D9695879597F908
:101280000895E1E0660F771F881FBB1F6217730781
:101290008407BA0720F0621B730B840BBA0BEE1F96
:1012A00088F7E0950895BCD088F09F5790F0B92F4B
:1012B0009927B751A0F0D1F0660F771F881F991FAB
:1012C0001AF0BA95C9F712C0B13081F0C3D0B1E0BD
:1012D0000895C0C0672F782F8827B85F39F0B93FCD
:1012E000CCF3869577956795B395D9F73EF49095AD
:1012F0008095709561957F4F8F4F9F4F0895E8942B
:1013000009C097FB3EF490958095709561957F4F4D
:101310008F4F9F4F9923A9F0F92F96E9BB279395FB
:10132000F695879577956795B795F111F8CFFAF40B
:10133000BB0F11F460FF1BC06F5F7F4F8F4F9F4F3C
:1013400016C0882311F096E911C0772321F09EE89A
:10135000872F762F05C0662371F096E8862F70E000
:1013600060E02AF09A95660F771F881FDAF7880FDA
:101370009695879597F90895990F0008550FAA0B30
:10138000E0E8FEEF16161706E807F907C0F0121698
:101390001306E407F50798F0621B730B840B950B9B
:1013A00039F40A2661F0232B242B252B21F40895F0
:1013B0000A2609F4A140A6958FEF811D811D08958D
:1013C00097F99F6780E870E060E008959FEF80ECF8
:1013D000089500240A94161617061806090608959B
:1013E00000240A9412161306140605060895092E01
:1013F0000394000C11F4882352F0BB0F40F4BF2B70
:1014000011F460FF04C06F5F7F4F8F4F9F4F0895AF
:1014100057FD9058440F551F59F05F3F71F04795A5
:10142000880F97FB991F61F09F3F79F0879508958A
:10143000121613061406551FF2CF4695F1DF08C0A9
:10144000161617061806991FF1CF869571056105C6
:1014500008940895E894BB2766277727CB0197F96E
:1014600008958ADF08F48FEF08950BD0C0CFB1DF65
:1014700028F0B6DF18F0952309F0A2CFA7CF1124EA
:10148000EACFC6DFA0F3959FD1F3950F50E0551F2B
:10149000629FF001729FBB27F00DB11D639FAA27C9
:1014A000F00DB11DAA1F649F6627B00DA11D661F18
:1014B000829F2227B00DA11D621F739FB00DA11D39
:1014C000621F839FA00D611D221F749F3327A00DF3
:1014D000611D231F849F600D211D822F762F6A2F8F
:1014E00011249F5750408AF0E1F088234AF0EE0F14
:1014F000FF1FBB1F661F771F881F91505040A9F721
:101500009E3F510570F05CCFA6CF5F3FECF3983E55
:10151000DCF3869577956795B795F795E7959F5F87
:10152000C1F7FE2B880F911D9695879597F9089521
:1015300077DFE0F09E37D8F09639B8F49E3848F45B
:10154000672F782F8827985FF9CF869577956795CD
:1015500093959539D0F3B62FB1706B0F711D811D26
:1015600020F4879577956795939502C01CC073CF3B
:10157000882371F4772321F09850872B762F07C0AA
:10158000662311F499270DC09051862B70E060E01E
:101590002AF09A95660F771F881FDAF7880F9695BD
:1015A000879597F908959F3F31F0915020F48795E2
:1015B00077956795B795880F911D9695879597F9BB
:0615C0000895F894FFCF2E
:1015C600FF00FF00FF00FF00648779A00000C1C094
:1015D60081C1400101C3C003800241C201C6C006E9
:1015E600800741C70005C1C581C4400401CCC00CB9
:1015F600800D41CD000FC1CF81CE400E000AC1CA79
:1016060081CB400B01C9C009800841C801D8C01868
:10161600801941D9001BC1DB81DA401A001EC1DEE8
:1016260081DF401F01DDC01D801C41DC0014C1D4D8
:1016360081D5401501D7C017801641D601D2C012F8
:10164600801341D30011C1D181D0401001F0C030C8
:10165600803141F10033C1F381F240320036C1F6E8
:1016660081F7403701F5C035803441F4003CC1FCB8
:1016760081FD403D01FFC03F803E41FE01FAC03A78
:10168600803B41FB0039C1F981F840380028C1E8A8
:1016960081E9402901EBC02B802A41EA01EEC02EE8
:1016A600802F41EF002DC1ED81EC402C01E4C024D8
:1016B600802541E50027C1E781E640260022C1E2F8
:1016C60081E3402301E1C021802041E001A0C06008
:1016D600806141A10063C1A381A240620066C1A6E8
:1016E60081A7406701A5C065806441A4006CC1ACB8
:1016F60081AD406D01AFC06F806E41AE01AAC06A78
:10170600806B41AB0069C1A981A840680078C1B867
:1017160081B9407901BBC07B807A41BA01BEC07EE7
:10172600807F41BF007DC1BD81BC407C01B4C074D7
:10173600807541B50077C1B781B640760072C1B2F7
:1017460081B3407301B1C071807041B00050C19047
:10175600819140510193C053805241920196C056E7
:10176600805741970055C19581944054019CC05CB7
:10177600805D419D005FC19F819E405E005AC19A77
:10178600819B405B0199C059805841980188C048A7
:1017960080494189004BC18B818A404A004EC18EE7
:1017A600818F404F018DC04D804C418C0044C184D7
:1017B600818540450187C047804641860182C042F7
:0C17C600804341830041C181818040408C
:00000001FF
