S019000052656C654B6F636B615F54696E793834412E73726563EA
S113000010C02AC029C028C027C026C025C024C0CB
S113001023C022C021C021C01FC01EC01DC01CC0DF
S11300201BC011241FBECFE5D2E0DEBFCDBF10E060
S1130030A0E6B0E0E6ECFEE002C005900D92AC361E
S1130040B107D9F720E0ACE6B0E001C01D92A538B5
S1130050B207E1F769D435C7D3CF1F920F920FB619
S11300600F9211248F93809172008F5F809372009E
S1130070809172008F3710F0109272008F910F9060
S11300800FBE0F901F9018952F923F924F925F9240
S11300906F927F928F929F92AF92BF92CF92DF9294
S11300A0EF92FF920F931F93CF93DF93CDB7DEB7F9
S11300B063970FB6F894DEBF0FBECDBF4B015C0152
S11300C080916000882309F467C180916500909154
S11300D06600A0916700B091680089839A83AB831E
S11300E0BC8360916A0070E080E090E0ABD5298128
S11300F03A814B815C815AD620E030E048EC52E4EE
S113010006D572D5C62ED12C002711270C191D092E
S1130110A501940169817A818B819C8147D64B0129
S11301205C01909161009D83A0916400AE83709006
S113013063006090620068EC362E212C8A2F90E0D8
S1130140FC01ED58FF4F6C86788624013501460189
S11301505F0106C00F5F1F4F801691060CF45CC050
S1130160B801012E000C880B990B6CD5A3019201E8
S113017066D46B017C0133D577FDECCF072E000CE0
S1130180880B990B5FD59B01AC0169817A818B81C6
S11301909C8108D687FDDECFC701B60125D5F62E92
S11301A0662309F4D0C069817A818B819C811CD536
S11301B06F1509F4C6C0FE81FF23F9F0E3E7F0E010
S11301C0462F3F2D2191842F622F5BD6992361F016
S11301D00FC0842F622F55D6482F832F52D6382F25
S11301E0842F4FD6911104C0832F4BD6992389F3C2
S11301F0EA15FB0539F7642FF32E6C87F88663152F
S113020008F0C2C0362E2F2C21E02D830F5F1F4F24
S1130210801691060CF0A4CF6C847884FD81F09351
S113022061007092630060926200632D70E080E070
S113023090E006D56B017C01622D70E080E090E0D7
S113024001D5A701960163D44B015C01A701960176
S113025069817A818B819C815AD46B017C0120E075
S113026030E0A90150D4181644F043C2A701960106
S1130270C701B601E4D36B017C0120E030E040E02B
S113028050E4C701B6013FD487FDF0CF20E030E051
S113029040E852E4C701B60189D59B01AC0160E78F
S11302A078E88CEF9AE433D420E030E040E85FE370
S11302B0C5D39AD475BD64BD2CB53DB584B595B58B
S11302C08217930778F48CB59DB564B575B5E5D5FB
S11302D09DBD8CBD2CB53DB58AB59BB52817390796
S11302E008F4DE9A64B575B580E090E0A9D49B016A
S11302F0AC01C501B4015AD577D47BBD6ABD2AB51A
S11303003BB58CB59DB52817390710F4DE99DE98F6
S113031063960FB6F894DEBF0FBECDBFDF91CF91C9
S11303201F910F91FF90EF90DF90CF90BF90AF900F
S11303309F908F907F906F905F904F903F902F9001
S113034008958AE0F82EEAE0E31508F5FA8A109297
S11303506100F09263008AE0809362000AE0AF2DAE
S11303606A2F70E080E090E06DD46B017C01602F17
S113037070E080E090E064D49B01AC01C701B60159
S1130380C6D34B015C01AECF31E03D83E3CEF886AA
S1130390FAE0FC871D82DECE8091650090916600B4
S11303A0A0916700B091680089839A83AB83BC8372
S11303B0BC01CD0119D4462E29813A814B815C813F
S11303C0C501B401F3D44B015C010ED46A8B81E006
S11303D080936100662309F41AC1A62F461609F416
S11303E096C110916400112309F4B7C1E3E7F0E06A
S11303F0212F30E02D583F4F042DA9013191802F3A
S1130400632F3FD5992361F00FC0802F632F39D517
S1130410082F8A2F36D5A82F802F33D5911104C0E9
S11304208A2F2FD5992389F3E417F50739F7AA8B77
S11304303A2F30936300009362006091690070E08A
S113044080E090E0FFD36C877D878E879F87802F25
S113045090E09F838E83BC01990F880B990BF2D394
S11304609B01AC0169817A818B819C8150D32C855D
S11304703D854E855F8547D387FFBFC020E030E0D0
S113048040E05FE369817A818B819C818FD420E095
S113049030E040E050E4D3D2688779878A879B872D
S11304A020E030E040E85FE37DD418160CF0A5C0EE
S11304B0E0916100ED83212F30E0398B288B1A897C
S11304C0502EC12CD12C40E8E42E4FE3F42E6624A8
S11304D06394712C2D583F4F19011B8BA701960172
S11304E0C501B401ACD280D3162F70E080E090E057
S11304F0A9D39B01AC0169817A818B819C8152D4FF
S113050087FF90C0A7019601C501B40197D26B0182
S11305107C0165D377FD57C0C701B60165D3162F9B
S1130520662309F4D8C0461609F4E6C02889398937
S1130530232B09F40EC1E3E7F0E03A89442D21911D
S1130540842F622F9ED4992361F00FC0842F622FD1
S113055098D4482F812F95D4182F842F92D4911199
S113056004C0812F8ED4992389F3E215F30539F75A
S11305703A8BE42EFF24F394E01608F0A7C05F2C16
S11305800E2D1A8B8E2D90E09F838E83DC01BD018E
S1130590BB0F880B990B56D39B01AC0169817A81FF
S11305A08B819C81B4D29B01AC016C857D858E8549
S11305B09F85A9D218160CF0B0C0552009F4E8C0E4
S11305C05E2C1B8BFD82BFEF6B1A7B0AB301072CD9
S11305D0000C880B990B36D36B017C012885398577
S11305E04A855B8590D287FD79CF1B89ED81E093A5
S11305F061001093630050926200602F70E080E00D
S113060090E01ED36B017C01BA896B2F16CE109239
S113061061002A89209363008AE0809362000AE0E3
S1130620A22F9ECE112309F45FC0411609F469C0BC
S113063088899989892B09F4A6C0E3E7F0E04B8AFD
S11306403A89442D2191842F622F1BD4992361F080
S11306500FC0842F622F15D4482F812F12D4182F46
S1130660842F0FD4911104C0812F0BD4992389F3C3
S1130670E215F30539F73A8B4B8BE1E0ED83F42F68
S1130680F01768F55D800F2F1A8B202F30E03F8321
S11306902E83D901BD01BB0F880B990BD3D29B01CB
S11306A0AC0169817A818B819C8131D29B01AC013F
S11306B06C857D858E859F8526D218160CF05AC0D0
S11306C0552009F44DC05B881B8B1CCF55245394D3
S11306D0AE81BF815CCFF12C2AE0E22E4DCF5524B0
S11306E05394AE81BF81D6CF1D829AE09B8BF92FA4
S11306F0C7CF67E87CEFDECDF12C9AE0E92E1AE053
S11307003BCF1D82AAE0AB8B1AE0FA2FB9CF10922F
S11307106100BAE0BA8B2B2F7DCFF0926100109369
S11307206300E0926200602F70E080E090E088D285
S11307306B017C012A89622F70E080E090E082D214
S1130740A7019601E4D14B015C01552009F4CACDFF
S11307507DCDE42CFF24F3940FCF042D3A8969CE88
S1130760FB88ED81E093610010936300F0926200D6
S1130770AA89F6CDFB88BD81B09361001093630014
S1130780F0926200D0CF4B8AB1E0BD83F42D78CFD4
S1130790F092610010936300E0926200AA89E0CDB8
S11307A0CF93DF9300D000D0CDB7DEB79B01AC016F
S11307B084B595B5BC0180E090E029833A834B83EE
S11307C05C833ED229813A814B815C81EFD20CD289
S11307D07BBD6ABD2AB53BB58CB59DB528173907D5
S11307E010F4DE99DE980F900F900F900F90DF9128
S11307F0CF91089520E030E040E852E4D7D29B0145
S1130800AC0160E778E88CEF9AE481D120E030E035
S113081040E85FE313D1E8D175BD64BD2CB53DB5A7
S113082084B595B58217930778F48CB59DB564B5F6
S113083075B533D39DBD8CBD2CB53DB58AB59BB57F
S11308402817390708F4DE9A0895CF92DF92EF92C1
S1130850FF920F931F93CF93DF93D69A1BBC1ABCBE
S11308608FB582608FBD8EB588608EBD8EB5806178
S11308708EBD8EB583608EBD8FB580688FBD86B109
S1130880856086B91C9A87B1807C87B987B18360FB
S113089087B9C0906500D0906600E0906700F09042
S11308A0680020E030E040E850E4C701B6017AD2A5
S11308B0D0E087FD2DC002E010E0C2E00430110555
S11308C08CF0C0FF15C032E005C08C2F632FD9D245
S11308D0992371F03F5F432F50E0440F551F0417D5
S11308E015079CF7ED2FF0E0ED58FF4FC083DF5F55
S11308F0CF5F0C2F10E0B801660F771F072E000C96
S1130900880B990B9FD1A7019601FDD01816B4F658
S1130910D09364007894DF91CF911F910F91FF9051
S1130920EF90DF90CF90089590DF6AE979E989E943
S11309309EE336DF60E070E080EA91E45BDF1092D2
S1130940600080916C0090916D00843C9940D0F1DE
S113095060916E0070916F008091700090917100B1
S1130960C0916C00D0916D006BD16B017C01BE0114
S113097080E090E065D19B01AC01C701B601C7D00E
S113098020E030E04FE753E4C2D07EDB10926D00EC
S113099010926C0010926E0010926F001092700012
S11309A0109271008EE190E0EFECF0E53197F1F7F1
S11309B000000197C9F780916C0090916D00843C10
S11309C0994030F6369B0BC082E390E002C0019759
S11309D031F0EBE1EA95F1F700C03699F8CF35989C
S11309E0379A369A369B0BC086E990E002C001978D
S11309F031F0FBE1FA95F1F700C03699F8CF25B153
S1130A0080916E0090916F00A0917000B091710080
S1130A10820F911DA11DB11D80936E0090936F00F4
S1130A20A0937000B093710080916C0090916D0060
S1130A30019690936D0080936C0083CF5058BB2730
S1130A40AA270ED075C166D130F06BD120F031F4F5
S1130A509F3F11F41EF45BC10EF4E095E7FB51C116
S1130A60E92F77D180F3BA176207730784079507D4
S1130A7018F071F49EF58FC10EF4E0950B2EBA2F89
S1130A80A02D0B01B90190010C01CA01A001112490
S1130A90FF27591B99F0593F50F4503E68F11A163C
S1130AA0F040A22F232F342F4427585FF3CF4695CD
S1130AB037952795A795F0405395C9F77EF41F16EF
S1130AC0BA0B620B730B840BBAF09150A1F0FF0FB9
S1130AD0BB1F661F771F881FC2F70EC0BA0F621FA5
S1130AE0731F841F48F4879577956795B795F79595
S1130AF09E3F08F0B3CF9395880F08F09927EE0F27
S1130B00979587950895D9D008F481E008950CD07D
S1130B100FC107D140F0FED030F021F45F3F19F04F
S1130B20F0C0511139C1F3C014D198F39923C9F31A
S1130B305523B1F3951B550BBB27AA2762177307DF
S1130B40840738F09F5F5F4F220F331F441FAA1F93
S1130B50A9F333D00E2E3AF0E0E830D09150504053
S1130B60E695001CCAF729D0FE2F27D0660F771F01
S1130B70881FBB1F261737074807AB07B0E809F0E3
S1130B80BB0B802DBF01FF2793585F4F2AF09E3F78
S1130B90510568F0B6C000C15F3FECF3983EDCF34A
S1130BA0869577956795B795F7959F5FC9F7880FF1
S1130BB0911D9695879597F90895E1E0660F771F43
S1130BC0881FBB1F621773078407BA0720F0621BD4
S1130BD0730B840BBA0BEE1F88F7E095089504D0CD
S1130BE06894B111D9C00895BCD088F09F5790F093
S1130BF0B92F9927B751A0F0D1F0660F771F881F3E
S1130C00991F1AF0BA95C9F712C0B13081F0C3D058
S1130C10B1E00895C0C0672F782F8827B85F39F0F6
S1130C20B93FCCF3869577956795B395D9F73EF49C
S1130C3090958095709561957F4F8F4F9F4F089544
S1130C40E89409C097FB3EF4909580957095619562
S1130C507F4F8F4F9F4F9923A9F0F92F96E9BB2718
S1130C609395F695879577956795B795F111F8CF94
S1130C70FAF4BB0F11F460FF1BC06F5F7F4F8F4FFF
S1130C809F4F16C0882311F096E911C0772321F0F5
S1130C909EE8872F762F05C0662371F096E8862F8D
S1130CA070E060E02AF09A95660F771F881FDAF7E4
S1130CB0880F9695879597F90895990F0008550F11
S1130CC0AA0BE0E8FEEF16161706E807F907C0F0CE
S1130CD012161306E407F50798F0621B730B840BD6
S1130CE0950B39F40A2661F0232B242B252B21F4B0
S1130CF008950A2609F4A140A6958FEF811D811D50
S1130D00089597F99F6780E870E060E008959FEF89
S1130D1080EC089500240A9416161706180609068E
S1130D20089500240A94121613061406050608955D
S1130D30092E0394000C11F4882352F0BB0F40F4E5
S1130D40BF2B11F460FF04C06F5F7F4F8F4F9F4F25
S1130D50089557FD9058440F551F59F05F3F71F0A7
S1130D604795880F97FB991F61F09F3F79F087950E
S1130D700895121613061406551FF2CF4695F1DF97
S1130D8008C0161617061806991FF1CF8695710527
S1130D90610508940895E894BB2766277727CB015B
S1130DA097F908958ADF08F48FEF08950AD0C0CF29
S1130DB0B1DF28F0B6DF18F0952309F0A2CFA7CF52
S1130DC0EBCFC7DFA8F39923D9F35523C9F3950FC4
S1130DD050E0551FAA27EE27FF27BB2700240894BD
S1130DE0679520F4E20FF31FB41F0A1E220F331F6E
S1130DF0441FAA1F6695A9F7779530F4F30FB41F23
S1130E000A1E121E08F46395330F441FAA1F221FE3
S1130E10769599F7879520F4B40F0A1E121E631F66
S1130E20440FAA1F221F331F8695A9F7862F712D01
S1130E30602D11249F5750408AF0E1F088234AF036
S1130E40EE0FFF1FBB1F661F771F881F9150504076
S1130E50A9F79E3F510570F054CF9ECF5F3FECF34E
S1130E60983EDCF3869577956795B795F795E79562
S1130E709F5FC1F7FE2B880F911D9695879597F973
S1130E800895991B79E004C0991F961708F0961BE2
S1130E90881F7A95C9F780950895AA1BBB1B51E159
S1130EA007C0AA1FBB1FA617B70710F0A61BB70BD6
S1130EB0881F991F5A95A9F780959095BC01CD017B
S1090EC00895F894FFCF31
S10F0EC60101FFFF120000C8423C0300C1
S9030000FC
