:1000000010C02AC029C028C027C026C025C024C0CF
:1000100023C022C021C021C01FC01EC01DC01CC0E3
:100020001BC011241FBECFE5D2E0DEBFCDBF10E064
:10003000A0E6B0E0E6ECF7E102C005900D92AC3628
:10004000B107D9F720E0ACE6B0E001C01D92A538B9
:10005000B207E1F79CD8B5CBD3CF1F920F92009097
:100060005F000F9211248F93CF93DF93CDB7DEB74C
:1000700080916C008F5F80936C0080916C008F3753
:1000800010F010926C00DF91CF918F910F90009241
:100090005F000F901F901895EF92FF920F931F93A0
:1000A000CF93DF9300D000D01F92CDB7DEB7198277
:1000B00082E08B831C822EC081E08A8382E08C8365
:1000C0000CC08B819C81692F5CDB892F882311F404
:1000D0001A820FC08C818F5F8C838C81882F90E077
:1000E0009C01220F331F8B81882F90E0821793078A
:1000F00044F78A81813059F48981882F90E08D58A6
:100100009F4F2B81FC01208389818F5F89838B81A5
:100110008F5F8B838B81882F90E0880F991F092E2A
:10012000000CAA0BBB0BBC01CD010CDA7B018C01CE
:100130008091620090916300A0916400B09165008D
:100140009C01AD01C801B7015ED918160CF0B4CFFF
:100150008981809366000F900F900F900F900F9001
:10016000DF91CF911F910F91FF90EF900895CF9362
:10017000DF93CDB7DEB728970FB6F894DEBF0FBE7A
:10018000CDBF8B836C8381E0809369008B81882352
:1001900029F4109269008AE08C8349C09B818C818C
:1001A000981739F4109269008AE08C838C818B83D4
:1001B0003EC01A82198232C014C089819A818D583A
:1001C0009F4FFC0190818C81692FDBDA8C838981C0
:1001D0009A818D589F4FFC0190818B81692FD1DAD4
:1001E0008B8389819A818D589F4FFC0190818C81EE
:1001F000692FC7DA892F882361F489819A818D5804
:100200009F4FFC0190818B81692FBBDA892F882356
:10021000A1F289819A8101969A83898380916600EF
:10022000282F30E089819A81821793072CF28B81E5
:10023000809367008C818093680028960FB6F894AD
:10024000DEBF0FBECDBFDF91CF910895CF92DF9279
:10025000EF92FF920F931F93CF93DF93CDB7DEB74B
:1002600064970FB6F894DEBF0FBECDBF698B7A8B53
:100270008B8B9C8B198288EC8A8381E08B838091A5
:100280006A00882309F403C180916000882F90E000
:10029000092E000CAA0BBB0BBC01CD0153D97B016D
:1002A0008C018091620090916300A0916400B091F4
:1002B00065009C01AD01C801B701F8D9DC01CB0193
:1002C00020E030E048EC52E4BC01CD01A0D8DC01D4
:1002D000CB01BC01CD0108D9DC01CB018C878C8519
:1002E000882F90E09195819591099D838C83C5C05D
:1002F0008091620090916300A0916400B0916500CC
:1003000029893A894B895C89BC01CD01CFD9DC01AF
:10031000CB016C017D018C819D81092E000CAA0B03
:10032000BB0BBC01CD010ED9DC01CB019C01AD01A1
:10033000C701B60104D8DC01CB01BC01CD01CFD887
:10034000DC01CB0199230CF493C080916200909161
:100350006300A0916400B091650029893A894B89B6
:100360005C89BC01CD01A2D9DC01CB016C017D010E
:100370008C819D81092E000CAA0BBB0BBC01CD0109
:10038000E1D8DC01CB019C01AD01C701B601D7D793
:10039000DC01CB01BC01CD01A2D8DC01CB01092ECF
:1003A000000CAA0BBB0BBC01CD01CCD87B018C018E
:1003B0008091620090916300A0916400B09165000B
:1003C0009C01AD01C801B7011ED818160CF450C02D
:1003D0008091620090916300A0916400B0916500EB
:1003E000BC01CD0181D8DC01CB01182F80916200C6
:1003F00090916300A0916400B091650029893A89C9
:100400004B895C89BC01CD0151D9DC01CB016C0168
:100410007D018C819D81092E000CAA0BBB0BBC01B8
:10042000CD0190D8DC01CB019C01AD01C701B60123
:1004300086D7DC01CB01BC01CD0156D8DC01CB0154
:10044000612F95DE909168008A81981720F0809145
:100450006900882369F4809168008A83809167002D
:100460008983809169008B838B81882309F40EC076
:100470008C819D8101969D838C838C85282F30E013
:100480008C819D81281739070CF032CF10C28091E2
:10049000620090916300A0916400B0916500BC017E
:1004A000CD0122D8DC01CB01182F80916200909100
:1004B0006300A0916400B091650029893A894B8955
:1004C0005C89BC01CD01F2D8DC01CB01BC01CD01BE
:1004D0000BD8DC01CB01612F4ADE809168008A8352
:1004E000809167008983809169008B838B81882349
:1004F00009F4DDC1C0906200D0906300E090640018
:10050000F09065008A81882F90E0092E000CAA0BDC
:10051000BB0BBC01CD0116D8DC01CB019C01AD01A8
:10052000C701B60174D7DC01CB016C017D0180915C
:100530006100882F90E0092E000CAA0BBB0BBC01B8
:10054000CD0100D8DC01CB019C01AD01C701B60192
:100550005AD788230CF0ABC181E090E09F838E8353
:1005600079C18091620090916300A0916400B09184
:10057000650029893A894B895C89BC01CD0196D8EF
:10058000DC01CB016C017D018E819F81092E000C65
:10059000AA0BBB0BBC01CD01D5D7DC01CB019C0163
:1005A000AD01C701B601CBD6DC01CB01BC01CD0149
:1005B0009BD7DC01CB01882F90E0092E000CAA0B01
:1005C000BB0BBC01CD01BED77B018C0180916200C9
:1005D00090916300A0916400B09165009C01AD0111
:1005E000C801B70110D718160CF482C080916200C0
:1005F00090916300A0916400B0916500BC01CD01B1
:1006000073D7DC01CB01182F8091620090916300B9
:10061000A0916400B091650029893A894B895C8971
:10062000BC01CD0143D8DC01CB016C017D018E8181
:100630009F81092E000CAA0BBB0BBC01CD0182D7F8
:10064000DC01CB019C01AD01C701B60178D6DC010C
:10065000CB01BC01CD0148D7DC01CB01612F87DD87
:10066000909168008A81981720F080916900882312
:1006700049F4809168008A83809167008983809122
:1006800069008B83C0906200D0906300E0906400AA
:10069000F09065008A81882F90E0092E000CAA0B4B
:1006A000BB0BBC01CD014ED7DC01CB019C01AD01E0
:1006B000C701B601ACD6DC01CB016C017D01809194
:1006C0006100882F90E0092E000CAA0BBB0BBC0127
:1006D000CD0138D7DC01CB019C01AD01C701B601CA
:1006E000E1D788230CF0E3C08B81882309F4DFC0B5
:1006F0008091620090916300A0916400B0916500C8
:1007000029893A894B895C89BC01CD01CFD7DC01AD
:10071000CB016C017D018E819F81092E000CAA0BFB
:10072000BB0BBC01CD010ED7DC01CB019C01AD019F
:10073000C701B60103D6DC01CB01BC01CD01CFD688
:10074000DC01CB0199230CF480C080916200909170
:100750006300A0916400B0916500BC01CD01C4D6D6
:10076000DC01CB01182F8091620090916300A09171
:100770006400B091650029893A894B895C89BC0184
:10078000CD0194D7DC01CB016C017D018E819F816D
:10079000092E000CAA0BBB0BBC01CD01D3D6DC018A
:1007A000CB019C01AD01C701B601C8D5DC01CB016D
:1007B000BC01CD0199D6DC01CB01612FD8DC909131
:1007C00068008A81981720F080916900882349F495
:1007D000809168008A838091670089838091690095
:1007E0008B83C0906200D0906300E0906400F09032
:1007F00065008A81882F90E0092E000CAA0BBB0BA4
:10080000BC01CD019FD6DC01CB019C01AD01C7012C
:10081000B601FDD5DC01CB016C017D018091610049
:10082000882F90E0092E000CAA0BBB0BBC01CD0158
:1008300089D6DC01CB019C01AD01C701B60132D7DD
:100840008823ACF58B81882391F18E819F8101965D
:100850009F838E838E819F81092E000CAA0BBB0B78
:10086000BC01CD016FD66B017C018091620090913B
:100870006300A0916400B091650020E030E040E0AA
:1008800050E4BC01CD01C3D5DC01CB0120E030E058
:1008900040E050E4BC01CD0152D5DC01CB019C010C
:1008A000AD01C701B601AFD588230CF45ACE8981BA
:1008B000882F90E0092E000CAA0BBB0BBC01CD01C8
:1008C00041D66B017C018A81882F90E0A0E0B0E0E6
:1008D000BC01CD0135D6DC01CB019C01AD01C701C6
:1008E000B60195D5DC01CB018D879E87AF87B88B8C
:1008F0008B81882309F457C0C0906200D0906300B8
:10090000E0906400F09065008A81882F90E0A0E07C
:10091000B0E0BC01CD0114D6DC01CB019C01AD01DE
:10092000C701B60174D5DC01CB0188879987AA87F6
:10093000BB8720E030E0A901688579858A859B85A1
:1009400062D518164CF080E090E0A0E0B0E4888713
:100950009987AA87BB871BC00FC088859985AA8500
:10096000BB859C01AD01BC01CD01E9D4DC01CB010B
:1009700088879987AA87BB8720E030E040E050E471
:10098000688579858A859B853ED5882334F32D85B6
:100990003E854F85588988859985AA85BB85BC0188
:1009A000CD01E0D007C08D859E85AF85B889BC019B
:1009B000CD010FD064960FB6F894DEBF0FBECDBF49
:1009C000DF91CF911F910F91FF90EF90DF90CF902B
:1009D00008950F931F93CF93DF9300D000D0CDB72E
:1009E000DEB769837A838B839C830AE410E084E416
:1009F00090E0FC0180819181CC01A0E0B0E0BC01DD
:100A0000CD019ED5DC01CB0129813A814B815C81EE
:100A1000BC01CD014BD6DC01CB01BC01CD0164D5BD
:100A2000DC01CB01F801918380838AE490E0FC0132
:100A3000208131818CE490E0FC0180819181281734
:100A4000390798F48BE390E0FC018081882F90E0D7
:100A500080749927892B49F08BE390E02BE330E0F9
:100A6000F90120812F7BFC0120830F900F900F90C4
:100A70000F90DF91CF911F910F9108950F931F93C6
:100A8000CF93DF9300D000D000D0CDB7DEB769831D
:100A90007A838B839C8304E410E020E030E040E81C
:100AA00052E469817A818B819C8100D6DC01CB0183
:100AB0009C01AD0160E778E88CEF9AE4A8D4DC01F2
:100AC000CB0120E030E040E85FE3BC01CD0136D44B
:100AD000DC01CB01BC01CD0107D5DC01CB01F80164
:100AE000918380838CE490E0FC012081318184E457
:100AF00090E0FC01808191818217930740F52CE4FE
:100B000030E08CE490E0FC016081718184E490E04D
:100B1000FC0140815181CB01BA013FD6F90191839B
:100B200080838CE490E0FC01208131818AE490E0B4
:100B3000FC01808191812817390748F48BE390E00C
:100B40002BE330E0F90120812064FC01208326960C
:100B50000FB6F894DEBF0FBECDBFDF91CF911F91CE
:100B60000F910895CF93DF93CDB7DEB728970FB6D7
:100B7000F894DEBF0FBECDBF69837A838B839C83DD
:100B80002D833E834F83588789819A81AB81BC81B5
:100B9000BC01CD0173DF8D819E81AF81B885BC0121
:100BA000CD0117DF28960FB6F894DEBF0FBECDBF7C
:100BB000DF91CF910895CF93DF931F92CDB7DEB72A
:100BC000898387E290E027E230E0F9012081207CF0
:100BD000FC01208387E290E027E230E0F9013081D8
:100BE0002981232BFC0120830F90DF91CF91089561
:100BF000CF93DF93CDB7DEB7C454D1090FB6F894C5
:100C0000DEBF0FBECDBF1A821982EAC080E090E03D
:100C1000A0E2B1E48B839C83AD83BE8329E838E8EE
:100C200040E350E46B817C818D819E813FD5DC0166
:100C3000CB018F839887A987BA8726E636E644E0FA
:100C400050E46B817C818D819E8130D5DC01CB01AC
:100C50008B879C87AD87BE8720E030E040E85FE36C
:100C60006F81788589859A85CED388231CF481E0AD
:100C70008F87ABC020E03FEF4FE757E46B857C8563
:100C80008D859E850FD518160CF078C020E030E0D9
:100C90004AE754E46B817C818D819E81B8D3DC016D
:100CA000CB01888B998BAA8BBB8B20E03CE441E085
:100CB00055E4688979898A899B89F8D4DC01CB015C
:100CC0008C8B9D8BAE8BBF8B20E030E040E85FE3E8
:100CD0006C897D898E899F8996D388232CF481E045
:100CE00090E0998F888F3DC020E03FEF4FE757E4B9
:100CF0006C897D898E899F89D5D418164CF520E0A2
:100D000030E040E251E4688979898A899B89CED4B0
:100D1000DC01CB01BC01CD01E7D3DC01CB01998F14
:100D2000888F0FC08EEC90E09B8F8A8F8A8D9B8D71
:100D30000197F1F79B8F8A8F888D998D0197998FF5
:100D4000888F888D998D892B69F78BA18F873DC0FE
:100D50006C897D898E899F89C7D3DC01CB01998FEE
:100D6000888F888D998D9D8F8C8F8C8D9D8D01970F
:100D7000F1F79D8F8C8F8BA18F8727C020E030E00B
:100D80004FE753E46F81788589859A858BD418164F
:100D9000A4F46B857C858D859E85A6D3DC01CB0173
:100DA0009F8F8E8F8E8D9F8D99A388A388A199A1E7
:100DB0000197F1F799A388A30EC06F817885898583
:100DC0009A8592D3DC01CB018F878F858AA38AA174
:100DD0008A95F1F78AA389819A8101969A838983FA
:100DE00086E290E0FC018081882F90E08074992752
:100DF000892B29F089819A81C2970CF407CF86E26A
:100E000090E026E230E0F90120812F7DFC01208373
:100E100086E290E026E230E0F90120812068FC01C2
:100E2000208386E290E026E230E0F9012081206410
:100E3000FC0120831A82198213C180E090E0A0E2B5
:100E4000B1E48CA39DA3AEA3BFA329E838E840E397
:100E500050E46CA17DA18EA19FA128D4DC01CB011F
:100E600088A799A7AAA7BBA726E636E644E050E4E0
:100E70006CA17DA18EA19FA119D4DC01CB018CA70F
:100E80009DA7AEA7BFA720E030E040E85FE368A5DC
:100E900079A58AA59BA5B7D288231CF481E088ABED
:100EA000C7C020E03FEF4FE757E46CA57DA58EA5B6
:100EB0009FA5F8D318160CF080C020E030E04AE778
:100EC00054E46CA17DA18EA19FA1A1D2DC01CB0134
:100ED00089AB9AABABABBCAB20E03CE441E055E462
:100EE00069A97AA98BA99CA9E1D3DC01CB018DABBF
:100EF0009EABAFABB8AF20E030E040E85FE36DA958
:100F00007EA98FA998AD7FD288232CF481E090E050
:100F10009AAF89AF41C020E03FEF4FE757E46DA99A
:100F20007EA98FA998ADBED318166CF520E030E0ED
:100F300040E251E469A97AA98BA99CA9B7D3DC0145
:100F4000CB01BC01CD01D0D2DC01CB019AAF89AF7E
:100F50000FC08EEC90E09CAF8BAF8BAD9CAD01973A
:100F6000F1F79CAF8BAF89AD9AAD01979AAF89AF7E
:100F700089AD9AAD892B69F7CE018C5B9F4FFC013F
:100F8000808188AB55C06DA97EA98FA998ADACD2E0
:100F9000DC01CB019AAF89AF89AD9AAD9EAF8DAF21
:100FA0008DAD9EAD0197F1F79EAF8DAFCE018C5BFD
:100FB0009F4FFC01808188AB3BC020E030E04FE7D1
:100FC00053E468A579A58AA59BA56CD3181644F5AA
:100FD0006CA57DA58EA59FA587D2DC01CB019E01C6
:100FE000215C3F4FF90191838083CE018F5B9F4F3E
:100FF0009E01215C3F4FF90120813181FC01318349
:101000002083CE018F5B9F4FFC01808191810197EE
:10101000F1F79E012F5B3F4FF901918380831BC045
:1010200068A579A58AA59BA55FD2DC01CB0188AB19
:10103000CE018D5B9F4F28A9FC012083CE018D5BE3
:101040009F4FFC018081282F2A95F1F7CE018D5BFF
:101050009F4FFC01208389819A8101969A8389831D
:1010600086E290E0FC018081882F90E080749927CF
:10107000892B31F089819A81863991050CF4DDCE76
:1010800085E290E0FC018081282F30E040E050E0D4
:1010900080916D0090916E00A0916F00B0917000F2
:1010A000820F931FA41FB51F80936D0090936E0055
:1010B000A0936F00B09370008091710090917200C6
:1010C00001969093720080937100CC5BDF4F0FB656
:1010D000F894DEBF0FBECDBFDF91CF910895CF93BF
:1010E000DF93CDB7DEB78AE390E02AE330E0F90181
:1010F00020812064FC0120838AE490E0FC011182BD
:1011000010828FE490E02FE430E0F901208122602A
:10111000FC0120838EE490E02EE430E0F901208190
:101120002860FC0120838EE490E02EE430E0F90199
:1011300020812061FC0120838EE490E02EE430E0E9
:10114000F90120812360FC0120838FE490E02FE4EB
:1011500030E0F90120812068FC01208386E290E0E4
:1011600026E230E0F90120812560FC01208383E242
:1011700090E023E230E0F90120812061FC0120832E
:1011800083E019DD89D77894DF91CF910895CF92CC
:10119000DF92EF92FF92CF93DF93CDB7DEB76097E8
:1011A0000FB6F894DEBF0FBECDBF99DF6AE979E9CB
:1011B00089E99EE30EDC60E070E080EA91E45EDCA9
:1011C00010926A008091710090917200843C994065
:1011D00010F40EDDF7CF80916D0090916E00A0911C
:1011E0006F00B0917000BC01CD01AAD16B017C01F0
:1011F0008091710090917200CC01A0E0B0E0BC0140
:10120000CD019ED1DC01CB019C01AD01C701B6012E
:10121000FED0DC01CB0120E030E04FE753E4BC011D
:10122000CD01F5D0DC01CB01BC01CD010FD810926E
:1012300072001092710010926D0010926E00109268
:101240006F001092700000001A82198271C080E055
:1012500090E0A0E2B1E48B839C83AD83BE8320E069
:101260003CE441E055E46B817C818D819E811ED2FE
:10127000DC01CB018F839887A987BA8720E030E013
:1012800040E85FE36F81788589859A85BCD08823A3
:101290002CF481E090E09C878B873BC020E03FEFFF
:1012A0004FE757E46F81788589859A85FBD11816B9
:1012B0003CF520E030E040E251E46B817C818D819F
:1012C0009E81F4D1DC01CB01BC01CD010DD1DC014B
:1012D000CB019C878B870FC08EEC90E09E878D871B
:1012E0008D859E850197F1F79E878D878B859C85DF
:1012F00001979C878B878B859C85892B69F713C009
:101300006F81788589859A85EFD0DC01CB019C8738
:101310008B878B859C85988B8F878F859889019784
:10132000F1F7988B8F8789819A8101969A838983B7
:1013300089819A814E970CF48ACF44CF5058BB27AD
:10134000AA270ED075C166D130F06BD120F031F4F0
:101350009F3F11F41EF45BC10EF4E095E7FB51C111
:10136000E92F77D180F3BA176207730784079507CF
:1013700018F071F49EF58FC10EF4E0950B2EBA2F84
:10138000A02D0B01B90190010C01CA01A00111248B
:10139000FF27591B99F0593F50F4503E68F11A1637
:1013A000F040A22F232F342F4427585FF3CF4695C8
:1013B00037952795A795F0405395C9F77EF41F16EA
:1013C000BA0B620B730B840BBAF09150A1F0FF0FB4
:1013D000BB1F661F771F881FC2F70EC0BA0F621FA0
:1013E000731F841F48F4879577956795B795F79590
:1013F0009E3F08F0B3CF9395880F08F09927EE0F22
:10140000979587950895D9D008F481E008950CD078
:101410000FC107D140F0FED030F021F45F3F19F04A
:10142000F0C0511139C1F3C014D198F39923C9F315
:101430005523B1F3951B550BBB27AA2762177307DA
:10144000840738F09F5F5F4F220F331F441FAA1F8E
:10145000A9F333D00E2E3AF0E0E830D0915050404E
:10146000E695001CCAF729D0FE2F27D0660F771FFC
:10147000881FBB1F261737074807AB07B0E809F0DE
:10148000BB0B802DBF01FF2793585F4F2AF09E3F73
:10149000510568F0B6C000C15F3FECF3983EDCF345
:1014A000869577956795B795F7959F5FC9F7880FEC
:1014B000911D9695879597F90895E1E0660F771F3E
:1014C000881FBB1F621773078407BA0720F0621BCF
:1014D000730B840BBA0BEE1F88F7E095089504D0C8
:1014E0006894B111D9C00895BCD088F09F5790F08E
:1014F000B92F9927B751A0F0D1F0660F771F881F39
:10150000991F1AF0BA95C9F712C0B13081F0C3D053
:10151000B1E00895C0C0672F782F8827B85F39F0F1
:10152000B93FCCF3869577956795B395D9F73EF497
:1015300090958095709561957F4F8F4F9F4F08953F
:10154000E89409C097FB3EF490958095709561955D
:101550007F4F8F4F9F4F9923A9F0F92F96E9BB2713
:101560009395F695879577956795B795F111F8CF8F
:10157000FAF4BB0F11F460FF1BC06F5F7F4F8F4FFA
:101580009F4F16C0882311F096E911C0772321F0F0
:101590009EE8872F762F05C0662371F096E8862F88
:1015A00070E060E02AF09A95660F771F881FDAF7DF
:1015B000880F9695879597F90895990F0008550F0C
:1015C000AA0BE0E8FEEF16161706E807F907C0F0C9
:1015D00012161306E407F50798F0621B730B840BD1
:1015E000950B39F40A2661F0232B242B252B21F4AB
:1015F00008950A2609F4A140A6958FEF811D811D4B
:10160000089597F99F6780E870E060E008959FEF84
:1016100080EC089500240A94161617061806090689
:10162000089500240A941216130614060506089558
:10163000092E0394000C11F4882352F0BB0F40F4E0
:10164000BF2B11F460FF04C06F5F7F4F8F4F9F4F20
:10165000089557FD9058440F551F59F05F3F71F0A2
:101660004795880F97FB991F61F09F3F79F0879509
:101670000895121613061406551FF2CF4695F1DF92
:1016800008C0161617061806991FF1CF8695710522
:10169000610508940895E894BB2766277727CB0156
:1016A00097F908958ADF08F48FEF08950AD0C0CF24
:1016B000B1DF28F0B6DF18F0952309F0A2CFA7CF4D
:1016C000EBCFC7DFA8F39923D9F35523C9F3950FBF
:1016D00050E0551FAA27EE27FF27BB2700240894B8
:1016E000679520F4E20FF31FB41F0A1E220F331F69
:1016F000441FAA1F6695A9F7779530F4F30FB41F1E
:101700000A1E121E08F46395330F441FAA1F221FDE
:10171000769599F7879520F4B40F0A1E121E631F61
:10172000440FAA1F221F331F8695A9F7862F712DFC
:10173000602D11249F5750408AF0E1F088234AF031
:10174000EE0FFF1FBB1F661F771F881F9150504071
:10175000A9F79E3F510570F054CF9ECF5F3FECF349
:10176000983EDCF3869577956795B795F795E7955D
:101770009F5FC1F7FE2B880F911D9695879597F96E
:101780000895991B79E004C0991F961708F0961BDD
:10179000881F7A95C9F780950895AA1BBB1B51E154
:1017A00007C0AA1FBB1FA617B70710F0A61BB70BD1
:1017B000881F991F5A95A9F780959095BC01CD0176
:0617C0000895F894FFCF2C
:0C17C600033C0000C84212FFFF010100BC
:00000001FF
