S01B00004156525F56656E746976657A5F4D656761384C2E7372656309
S113000025C03FC03EC03DC03CC03BC03AC039C023
S113001038C01FC136C0B8C134C033C032C031C0CB
S113002030C03AC72EC084C192C184C185C18DC17C
S113003090C185C18EC185C18CC185C18AC189C168
S113004088C187C186C185C184C183C111241FBEF3
S1130050CFE5D4E0DEBFCDBF12E0A0E6B0E0EEEE27
S1130060F3E102C005900D92AC36B107D9F722E056
S1130070ACE6B2E001C01D92A63CB207E1F7AED5F2
S1130080B4C9BECFE199FECF9FBB8EBBE09A8DB3BE
S113009008950F931F93CF938C01C801F3DFC82FEA
S11300A0C801F0DFC813F9CF8C2FCF911F910F91A6
S11300B00895E199FECF9FBB8EBB6DBBF894E29A85
S11300C0E19A789408950F931F93CF938C01C62FD0
S11300D0C801D8DF8C1721F06C2FC801EADFF8CFF4
S11300E0CF911F910F9108953E9A83E886B90895A0
S11300F097B1907F892B87B9369A3699FECF369A75
S11301003699FECF84B125B190E0922B08958FE209
S113011089B910BC80B5866880BD8AB188698AB9FE
S11301200895CF93DF93BD9ADFDF83B7856083BFE4
S113013089B7816089BFAB9AA39A81B38C6081BB74
S1130140E6DF88E680B985E886BF8EB589608EBD16
S113015087B3866087BB109265001092640010928A
S113016067001092660088E190E093DF90E090933E
S113017067008093660089E190E08BDF2091660040
S11301803091670040E2849FC0011124282B392B51
S113019030936700209366008AE190E07ADF90E074
S11301A090936500809364008BE190E072DF20916E
S11301B064003091650040E2849FC0011124282B23
S11301C0392B3093650020936400C0E0D0E0FE0139
S11301D0EB57FD4F1082CE015CDFFE01EA56FD4F66
S11301E080832196C830D10591F7109279027894D2
S11301F0DF91CF910895CF93DF93AC01DC0180E0D0
S113020090E070E09D01241B350B2617370784F41A
S1130210C92FDD272D91FC01E227FF27EE0FFF1FD9
S1130220E459FF4F20813181CE0182279327EACF01
S1130230DF91CF910895AB988FEF97E40197F1F791
S113024000C00000AB9A0895F6DF81B5886081BDD7
S113025008951F920F920FB60F9211242F933F937C
S11302604F935F936F937F938F939F93AF93BF93BA
S1130270EF93FF9381E08093710260916900709124
S11302806A00072E000C880B990B4FD720E030E84A
S113029042E051E4B0D618164CF080916900909178
S11302A06A00019690936A008093690080916D02C0
S11302B08F5F80936D0280916E028F5F80936E02D8
S11302C0809179028F5F8093790280917702909177
S11302D07802019690937802809377028091790254
S11302E0893708F0B1DF80917702909178028132EA
S11302F093400CF0A9DF90916D02809168008917FA
S113030070F510926D0280916C02882321F1839B19
S113031002C0939801C0939AE09168008E2F90E0F8
S1130320FC013297E331F105A0F4ED5EFF4F09942F
S113033084E013C085E011C088E0809368008AE0FF
S11303400CC08CE00AC086E008C083E006C084E1EB
S113035004C082E002C0939884E680936800FF9111
S1130360EF91BF91AF919F918F917F916F915F9129
S11303704F913F912F910F900FBE0F901F901895A2
S11303805D9BFECF8CB908951F920F920FB60F920A
S113039011248F929F92AF92BF92CF92DF92EF92ED
S11303A0FF920F931F932F933F934F935F936F93FA
S11303B07F938F939F93AF93BF93EF93FF93CF93C9
S11303C0DF93CDB7DEB72897DEBFCDBF8CB18F3FAB
S11303D009F071C0109278021092770210927A029A
S11303E08DE7CEDF2FEF4FE382E021504040804085
S11303F0E1F700C0000086E9C3DF9FEFEFE3F2E01E
S11304009150E040F040E1F700C000008AE0B8DF1E
S11304108FEF97E40197F1F700C0000084E1B0DFAB
S1130420EFEFF7E43197F1F700C000008EE1A8DFA9
S11304308FEF97E40197F1F700C0000088E2A0DF96
S1130440EFEFF7E43197F1F700C0000082E398DFA3
S11304508FEF97E40197F1F700C000008CE390DF81
S1130460EFEFF7E43197F1F700C0000086E488DF8E
S11304708FEF97E40197F1F700C0000080E580DF7B
S1130480EFEFF7E43197F1F700C0000083E278DF83
S11304908FEF97E40197F1F700C0000084E270DF6A
S11304A0EFEFF7E43197F1F700C000001092780203
S11304B01092770299C28CB18B3659F4109278025B
S11304C01092770281E080937A0210927B028BE68D
S11304D08AC28CB18D3759F4109278021092770247
S11304E082E080937A0210927B028DE77CC28CB109
S11304F08E3609F05CC01092780210927702109246
S11305007A023EDFCE0101966C017C0100E010E02E
S1130510C801B8DD682F70E080E090E004D623E3E2
S113052033E343E250E46BD517D7D1D5F701619398
S11305307F010F5F1F4F0830110551F75E01F9E08D
S1130540AF0EB11CF60100E0F12C10E0819180FFA8
S113055002C01F5F0F5F81FF02C01F5FF39482FF21
S113056002C01F5F0F5F83FF02C01F5FF39484FF0D
S113057002C01F5F0F5F85FF02C01F5FF39486FFF9
S113058002C01F5F0F5F87FF02C01F5FF394EA156D
S1130590FB05E1F6F60181916F01F2DECA14DB047A
S11305A0C9F7812FEDDE8F2DEBDE802F1CC28CB1BD
S11305B0833709F0B2C01092780210927702109239
S11305C07A02DEDE80E094DD893791052CF0909389
S11305D075028093740204C0109275021092740222
S11305E081E086DD893791052CF090937302809326
S11305F0720204C01092730210927202809074020C
S113060090907502C0907402D0907502F0ECCF22E5
S1130610FFE0DF2226E0D594C7942A95E1F7A09065
S11306207202B0907302E0907202F090730220ECB8
S1130630E2222FE0F22236E0F594E7943A95E1F7CE
S1130640882D8F739DDE8C2D9BDE8A2D8F7398DE13
S11306508E2D96DE182D117081FE04C081E0810F6D
S113066001E002C0812F00E082FE02C08F5F1F5FA5
S113067083FE02C08F5F0F5F84FE02C08F5F1F5F27
S113068085FE02C08F5F0F5FC0FE02C08F5F1F5FD9
S1130690C1FE02C08F5F0F5FC2FE02C08F5F1F5F8B
S11306A0C3FE02C08F5F0F5FC4FE02C08F5F1F5F77
S11306B0C5FE02C08F5F0F5FA0FE02C08F5F1F5F89
S11306C0A1FE02C08F5F0F5FA2FE02C08F5F1F5F9B
S11306D0A3FE02C08F5F0F5FA4FE02C08F5F1F5F87
S11306E0A5FE02C08F5F0F5FE0FE02C08F5F1F5F39
S11306F0E1FE02C08F5F0F5FE2FE02C08F5F1F5FEB
S1130700E3FE02C08F5F0F5FE4FE02C08F5F1F5FD6
S1130710E5FE8CC08F5F0F5F89C08CB1863709F00E
S11307208AC0109278021092770210927A0228DE20
S11307308090660090906700C0906600D09067003B
S113074040EEC42243E0D42285E0D694C7948A952F
S1130750E1F7A0906400B0906500E0906400F09030
S1130760650080EEE82283E0F82295E0F694E794B1
S11307709A95E1F7882D8F7103DE8C2D01DE8A2D89
S11307808F71FEDD8E2DFCDD182D117081FE04C0ED
S113079081E0810F01E002C0812F00E082FE02C0EF
S11307A08F5F1F5F83FE02C08F5F0F5F84FE02C0F6
S11307B08F5F1F5FC0FE02C08F5F1F5FC1FE02C05C
S11307C08F5F0F5FC2FE02C08F5F1F5FC3FE02C058
S11307D08F5F0F5FC4FE02C08F5F1F5FA0FE02C069
S11307E08F5F1F5FA1FE02C08F5F0F5FA2FE02C07A
S11307F08F5F1F5FA3FE02C08F5F0F5FA4FE02C066
S11308008F5F1F5FE0FE02C08F5F1F5FE1FE02C0CB
S11308108F5F0F5FE2FE02C08F5F1F5FE3FE02C0C7
S11308208F5F0F5FE4FE02C08F5F1F5FA9DD802F23
S1130830A7DD812FD8C08CB1883799F41092780243
S1130840109277029DDD83E080937A02109261001A
S113085010926000109263001092620010927B026A
S1130860C3C08CB1853608F0BFC080917A02813054
S113087039F5109278021092770200917B0210E011
S11308806CB170E080E090E04ED423E333E343E2C4
S113089050E4FFD461D51BD4F801EA56FD4F6083C0
S11308A080917B028F5F80937B0280917B028830F2
S11308B0A1F58CED65DD10927A0210927B022DC0B9
S11308C080917A02823071F5109278021092770248
S11308D000917B0210E06CB170E080E090E023D4E2
S11308E023E333E343E250E4D4D436D5F0D3F80120
S11308F0E257FD4F608380917B028F5F80937B0280
S113090080917B02883049F48CED3ADD10927A02B2
S113091010927B0281E08093700210927802109210
S1130920770260C080917A02833009F05DC0109232
S113093078021092770280917B02811103C08CB1FE
S113094090E00FC080917B028130A9F48CB120919A
S1130950620030916300E0E48E9FC0011124822B79
S1130960932B909363008093620080917B028F5F4E
S113097080937B0237C080917B02823039F48CB142
S113098090E09093610080936000EFCF80917B02B0
S1130990833041F58CEDF4DC8CB120916000309112
S11309A06100F0E48F9FC0011124822B932B90935C
S11309B06100809360008091620090916300909345
S11309C0670080936600809160009091610090932D
S11309D065008093640081E080936F0210927A0234
S11309E010927B028CB1CCDC28960FB6F894DEBF53
S11309F00FBECDBFDF91CF91FF91EF91BF91AF912A
S1130A009F918F917F916F915F914F913F912F9122
S1130A101F910F91FF90EF90DF90CF90BF90AF9018
S1130A209F908F900F900FBE0F901F9018958093FA
S1130A308D02609380028091B202809381021092B1
S1130A40820285E986BF06B607FCFDCF10927C02C0
S1130A5085EA86BF08950F931F93CF93DF93CDB795
S1130A60DEB72A970FB6F894DEBF0FBECDBF8AE07B
S1130A7080938102898384E18A8310927902809130
S1130A808602823010F41B8203C0809186028B831D
S1130A9080918702823010F41C8203C08091870207
S1130AA08C8380918802823010F41D8203C080916F
S1130AB088028D8380918902823010F41E8203C0E3
S1130AC0809189028E8380918A02823010F41F8281
S1130AD003C080918A028F8380918B02823010F44C
S1130AE0188603C080918B02888768E08E010F5FAF
S1130AF01F4FC80180DB89879A87F801CF01801BCB
S1130B00910B2091810230E08217930734F42191F4
S1130B10DC01AE54BD4F2C93F1CF10927902809139
S1130B206B0061E070E090E082DF10926A00109246
S1130B30690080E02A960FB6F894DEBF0FBECDBFE1
S1130B40DF91CF911F910F9108952091660030910C
S1130B506700809174029091750282179307B0F434
S1130B60209164003091650080917202909173022B
S1130B708217930758F4109279028091850282308B
S1130B8088F41BBC1ABC8FB58F7713C080E090E04B
S1130B902FEFFC01EB57FD4F208301968830910520
S1130BA0C1F7E9CF8091850290E09BBD8ABD8FB5E6
S1130BB080688FBD80918C02823028F419BC18BCE7
S1130BC08FB58F7D07C080918C0290E099BD88BD60
S1130BD08FB580628FBD109279023DCFCF93DF93A2
S1130BE0CDB7DEB79EDAFF24F39427E8C22E29E7B7
S1130BF0D22E1092790280917602813019F4A5DF09
S1130C00109276021092790280917102882399F1F0
S1130C1020E030E080E0F901EB57FD4F4081D9013D
S1130C20AA56BD4F9C914917E1F090818C91891788
S1130C3050F480814C9190E0841B9109029774F0E8
S1130C40808182500CC08C91408190E0841B91097A
S1130C50181619061CF480818F5F01C08C91808363
S1130C6081E02F5F3F4F28303105A9F68111F092C2
S1130C707602109271021092790280917002882398
S1130C80A1F000E010E0F801E257FD4F80818230CE
S1130C9010F460E001C06081C80115DA0F5F1F4FD6
S1130CA00830110581F71092700210927902809138
S1130CB06F02882371F160916600709167006F7113
S1130CC088E190E000DA6091660070916700607ED0
S1130CD0737085E0769567958A95E1F789E190E0F0
S1130CE0F2D960916400709165006F718AE190E0BF
S1130CF0EAD96091640070916500607E737095E03C
S1130D00769567959A95E1F78BE190E0DCD910929E
S1130D106F021092790280916E028234E8F110928F
S1130D206E0280E0E5D9883823E092072CF4909392
S1130D3075028093740204C01092750210927402BA
S1130D4081E0D6D9883833E093072CF4909373026A
S1130D508093720204C01092730210927202209166
S1130D606600309167008091740290917502821739
S1130D70930758F4209164003091650080917202C9
S1130D80909173028217930728F0F0927602F09202
S1130D906C0202C010926C02109279028091690078
S1130DA090916A0087389947E1F0609169007091E9
S1130DB06A00072E000C880B990BB7D120E030E8AD
S1130DC042E051E462D287FD0CC0F0927602809139
S1130DD084028F5F80938402809183028F5F80936B
S1130DE083021092790280917D02882309F446C01F
S1130DF080919E02823008F43FC04DB75EB7809167
S1130E007F0290E02DB73EB7281B390B0FB6F8943C
S1130E103EBF0FBE2DBF0DB71EB70F5F1F4FD801CA
S1130E2020E030E0281739074CF4B90162567D4FB1
S1130E30FB0160816D932F5F3F4FF4CFF8018181F7
S1130E40813149F41092840210928302D0926A0094
S1130E50C09269000CC0809184028F5F80938402E9
S1130E60809183028F5F80938302F09276020FB6A3
S1130E70F8945EBF0FBE4DBF10927D028091840234
S1130E80843018F0D8D910928402809183028A3079
S1130E9008F4AFCED9D9ADCE1F920F920FB60F92F0
S1130EA011248F939F93EF93FF9381B1887F8032B6
S1130EB009F493C040F48031A1F0883119F18830ED
S1130EC009F08DC00EC0803309F487C018F488324D
S1130ED0A1F185C0803409F451C0803509F454C0AF
S1130EE07EC080917C02811103C080918D0208C074
S1130EF080918002882309F472C080918D028F5FF3
S1130F0083B940C09091820280918102981740F089
S1130F1080918002882309F460C010927C022CC066
S1130F20E0918202F0E0EE54FD4F808183B980911C
S1130F3082028F5F8093820225C090918202809109
S1130F408102981738F4E0918202F0E0EE54FD4FEC
S1130F50808183B9809182028F5F80938202909115
S1130F608202809181028917D0F5809180028823C2
S1130F70A1F181E080937C0285EA30C010927E0268
S1130F8010927D0285EC2AC080917E02811108C0F6
S1130F9083B18F3F11F083B101C081E080937F0260
S1130FA090917E0280917F02981748F4E0917E022E
S1130FB0F0E083B1E256FD4F808385EC86BF8091DB
S1130FC07E028F5F80937E0290917E0280917F02E9
S1130FD0981728F081E080937D0285E986BF86B763
S1130FE0806886BFFF91EF919F918F910F900FBE04
S1130FF00F901F901895D4D008F481E008950CD078
S11310000AC102D140F0F9D030F021F45F3F19F069
S1131010EBC0511134C1EEC00FD198F39923C9F339
S11310205523B1F3951B550BBB27AA2762177307EA
S1131030840738F09F5F5F4F220F331F441FAA1F9E
S1131040A9F333D00E2E3AF0E0E830D0915050405E
S1131050E695001CCAF729D0FE2F27D0660F771F0C
S1131060881FBB1F261737074807AB07B0E809F0EE
S1131070BB0B802DBF01FF2793585F4F2AF09E3F83
S1131080510568F0B1C0FBC05F3FECF3983EDCF360
S1131090869577956795B795F7959F5FC9F7880FFC
S11310A0911D9695879597F90895E1E0660F771F4E
S11310B0881FBB1F621773078407BA0720F0621BDF
S11310C0730B840BBA0BEE1F88F7E0950895BCD020
S11310D088F09F5790F0B92F9927B751A0F0D1F01D
S11310E0660F771F881F991F1AF0BA95C9F712C0A7
S11310F0B13081F0C3D0B1E00895C0C0672F782F1C
S11311008827B85F39F0B93FCCF386957795679512
S1131110B395D9F73EF490958095709561957F4F7E
S11311208F4F9F4F0895E89409C097FB3EF4909524
S11311308095709561957F4F8F4F9F4F9923A9F0AC
S1131140F92F96E9BB279395F6958795779567953B
S1131150B795F111F8CFFAF4BB0F11F460FF1BC07F
S11311606F5F7F4F8F4F9F4F16C0882311F096E912
S113117011C0772321F09EE8872F762F05C06623C0
S113118071F096E8862F70E060E02AF09A95660F79
S1131190771F881FDAF7880F9695879597F9089532
S11311A0990F0008550FAA0BE0E8FEEF1616170674
S11311B0E807F907C0F012161306E407F50798F0DC
S11311C0621B730B840B950B39F40A2661F0232BF5
S11311D0242B252B21F408950A2609F4A140A69571
S11311E08FEF811D811D089597F99F6780E870E056
S11311F060E008959FEF80EC089500240A94161689
S1131200170618060906089500240A9412161306F0
S1131210140605060895092E0394000C11F488237E
S113122052F0BB0F40F4BF2B11F460FF04C06F5F9A
S11312307F4F8F4F9F4F089557FD9058440F551F70
S113124059F05F3F71F04795880F97FB991F61F044
S11312509F3F79F087950895121613061406551FBB
S1131260F2CF4695F1DF08C0161617061806991F27
S1131270F1CF86957105610508940895E894BB271C
S113128066277727CB0197F908958ADF08F48FEF53
S113129008950BD0C0CFB1DF28F0B6DF18F0952346
S11312A009F0A2CFA7CF1124EACFC6DFA0F3959F00
S11312B0D1F3950F50E0551F629FF001729FBB2739
S11312C0F00DB11D639FAA27F00DB11DAA1F649FE5
S11312D06627B00DA11D661F829F2227B00DA11D98
S11312E0621F739FB00DA11D621F839FA00D611D1E
S11312F0221F749F3327A00D611D231F849F600D3F
S1131300211D822F762F6A2F11249F5750408AF077
S1131310E1F088234AF0EE0FFF1FBB1F661F771F03
S1131320881F91505040A9F79E3F510570F05CCF43
S1131330A6CF5F3FECF3983EDCF3869577956795EF
S1131340B795F795E7959F5FC1F7FE2B880F911D21
S11313509695879597F9089577DFE0F09E37D8F052
S11313609639B8F49E3848F4672F782F8827985F09
S1131370F9CF86957795679593959539D0F3B62FE0
S1131380B1706B0F711D811D20F48795779567955A
S1131390939502C01CC073CF882371F4772321F086
S11313A09850872B762F07C0662311F499270DC018
S11313B09051862B70E060E02AF09A95660F771FB3
S11313C0881FDAF7880F9695879597F908959F3FB8
S11313D031F0915020F4879577956795B795880FEC
S11113E0911D9695879597F90895F894FFCF7F
S11313EEFF00FF00FF00FF00648779A00000C1C06A
S11313FE81C1400101C3C003800241C201C6C006BF
S113140E800741C70005C1C581C4400401CCC00C8E
S113141E800D41CD000FC1CF81CE400E000AC1CA4E
S113142E81CB400B01C9C009800841C801D8C0183E
S113143E801941D9001BC1DB81DA401A001EC1DEBE
S113144E81DF401F01DDC01D801C41DC0014C1D4AE
S113145E81D5401501D7C017801641D601D2C012CE
S113146E801341D30011C1D181D0401001F0C0309E
S113147E803141F10033C1F381F240320036C1F6BE
S113148E81F7403701F5C035803441F4003CC1FC8E
S113149E81FD403D01FFC03F803E41FE01FAC03A4E
S11314AE803B41FB0039C1F981F840380028C1E87E
S11314BE81E9402901EBC02B802A41EA01EEC02EBE
S11314CE802F41EF002DC1ED81EC402C01E4C024AE
S11314DE802541E50027C1E781E640260022C1E2CE
S11314EE81E3402301E1C021802041E001A0C060DE
S11314FE806141A10063C1A381A240620066C1A6BE
S113150E81A7406701A5C065806441A4006CC1AC8D
S113151E81AD406D01AFC06F806E41AE01AAC06A4D
S113152E806B41AB0069C1A981A840680078C1B83D
S113153E81B9407901BBC07B807A41BA01BEC07EBD
S113154E807F41BF007DC1BD81BC407C01B4C074AD
S113155E807541B50077C1B781B640760072C1B2CD
S113156E81B3407301B1C071807041B00050C1901D
S113157E819140510193C053805241920196C056BD
S113158E805741970055C19581944054019CC05C8D
S113159E805D419D005FC19F819E405E005AC19A4D
S11315AE819B405B0199C059805841980188C0487D
S11315BE80494189004BC18B818A404A004EC18EBD
S11315CE818F404F018DC04D804C418C0044C184AD
S11315DE818540450187C047804641860182C042CD
S10F15EE804341830041C1818180404062
S9030000FC
