S0140000445331384232305F456C736F2E737265637A
S113000012C024C023C022C021C020C01FC01EC0F3
S11300101DC01CC01BC0D2C119C018C017C016C057
S113002015C014C013C011241FBECFE5D4E0DEBF39
S1130030CDBF10E0A0E6B0E0E4E8FBE002C005902C
S11300400D92AE3BB107D9F79DD19AC5D9CF813076
S113005019F0823091F023C0A898A09AA0988CE05F
S113006090E000000197E9F783B3817029E230E062
S1130070000021503109E1F70895A998A19AA198A7
S11300808CE090E000000197E9F783B386958170D6
S113009029E230E0000021503109E1F7089583E6B8
S11300A00895613019F0623061F00895A898A09A1B
S11300B08111A09887E390E000000197E9F7A098E8
S11300C00895A998A19A8111A19887E390E000006E
S11300D00197E9F7A19808951F93CF93DF93182F01
S11300E0F894D8E0C0E0812FB2DF20E8829FC001FD
S11300F01124C695C82BD150B1F778948C2FDF9179
S1130100CF911F9108951F93CF93DF93D82F162F6C
S1130110F894C8E0612F8D2F8170C3DFD695C1504C
S1130120C9F77894DF91CF911F910895813019F028
S11301308230B9F02CC0A898A09A8AEB91E0000014
S11301400197E9F7A09887E390E000000197E9F7A9
S113015083B3817023E831E0000021503109E1F7D5
S11301600895A998A19A8AEB91E000000197E9F714
S1130170A19887E390E000000197E9F783B38270C8
S113018023E831E0000021503109E1F7089581E0CE
S11301900895862798E02CE880FF03C0869582277F
S11301A001C086959150C1F708953F924F925F9296
S11301B06F927F928F929F92AF92BF92CF92DF9273
S11301C0EF92FF920F931F93CF93DF93CDB7DEB7D8
S11301D02F970FB6F894DEBF0FBECDBF782EA6DFE3
S11301E0672D8CEC90DF672D84E48DDF8EB5856000
S11301F08EBD1DBC1CBC872D2ADF811186C06CB549
S11302007DB5C0906000D0906100E0906200F090F5
S1130210630080E090E07ED1A701960177D1882326
S113022054F373C0612C4E0127E0820E911C6E01C1
S113023080E1C80ED11C482C592C5E019FE0A90E08
S1130240B11C312C872D72DF672D8CEC5CDF672DA0
S11302508EEB59DF7401042D152D872D3DDFF80138
S113026081938F01EC15FD05C1F7832DF701619191
S11302707F018FDFEA14FB04C9F79F85981739F0D3
S11302806394F4E06F12DECF84E790E058C023E07B
S11302902615C0F19F81492F42954F709F7061E7E9
S11302A072E0969F9001979F300D11243F932F93F6
S11302B098859770E0E19E9FC0011124842B282F1C
S11302C0082E000C330B3F938F938BE790E09F93A2
S11302D08F938E010F5F1F4F1F930F938BD10FB618
S11302E0F894DEBF0FBECDBFC80129C087E0E4E7A4
S11302F0F0E0DE01119601900D928A95E1F7CE01AE
S113030001961DC084E790E01AC08EB58A7F8EBD29
S11303108CB59DB5C0906000D0906100E090620003
S1130320F0906300BC0180E090E0F4D09B01AC014C
S1130330C701B60150D118160CF474CFD7CF2F963D
S11303400FB6F894DEBF0FBECDBFDF91CF911F91E2
S11303500F91FF90EF90DF90CF90BF90AF909F9060
S11303608F907F906F905F904F903F900895899AFF
S11303708FE289B910BC80B5866880BD8AB188696E
S11303808AB90895F4DF7894FFCF5D9BFECF8CB9D2
S113039008950F931F93CF93DF93161617064CF40B
S11303A08C01EC01060F171F8991EFDFC017D107ED
S11303B0D9F7DF91CF911F910F9108951F920F925A
S11303C00FB60F921124EF92FF920F931F932F9366
S11303D03F934F935F936F937F938F939F93AF93C9
S11303E0BF93EF93FF93CF93DF93CDB7DEB7C5559C
S11303F0D109DEBFCDBF8CB1833609F044C082E1A0
S1130400E3E8F0E08E010F5F1F4FD80101900D92D9
S11304108A95E1F7D8010D900020E9F7119784E15E
S1130420E5E9F0E001900D928A95E1F781E0BDDE07
S1130430BC01C801D4D0F80101900020E9F731973C
S11304400F2EFAE0EF2EF12CF02DF182E082D8018C
S11304500D900020E9F7119784E1E9EAF0E00190BA
S11304600D928A95E1F782E0A0DEBC01C801B7D005
S1130470F80101900020E9F73197F182E08265E507
S113048070E0C80186DF8CB1833411F580E57DDF2F
S11304902CEC8CEC91E0215080409040E1F700C0BE
S11304A084E673DF2CEC8CEC91E02150804090408A
S11304B0E1F700C080E1E4E6F0E0DE01119601908E
S11304C00D928A95E1F760E170E0CE01019661DF5B
S11304D0CB5ADF4F0FB6F894DEBF0FBECDBFDF910E
S11304E0CF91FF91EF91BF91AF919F918F917F91A8
S11304F06F915F914F913F912F911F910F91FF90B9
S1130500EF900F900FBE0F901F90189540D008F4F5
S113051081E00895E89409C097FB3EF49095809596
S1130520709561957F4F8F4F9F4F9923A9F0F92FB5
S113053096E9BB279395F695879577956795B79533
S1130540F111F8CFFAF4BB0F11F460FF1BC06F5F19
S11305507F4F8F4F9F4F16C0882311F096E911C02B
S1130560772321F09EE8872F762F05C0662371F04C
S113057096E8862F70E060E02AF09A95660F771F60
S1130580881FDAF7880F9695879597F90895990F3C
S11305900008550FAA0BE0E8FEEF16161706E80749
S11305A0F907C0F012161306E407F50798F0621B6A
S11305B0730B840B950B39F40A2661F0232B242B3F
S11305C0252B21F408950A2609F4A140A6958FEF5E
S11305D0811D811D0895DBDF08F48FEF0895FB0171
S11305E0DC010D900020E9F7119701900D92002095
S11305F0E1F70895AEE0B0E0EFEFF2E098C20D89C4
S11306001E8986E08C831A8309838FEF9FE79E837C
S11306108D83AE01475E5F4F6F89788DCE01019661
S113062009D02F813885F801E20FF31F10822E962E
S1130630E4E099C2ACE0B0E0EFE1F3E06AC27C012F
S11306406B018A01FC0117821682838181FFB0C18C
S1130650CE0101964C01F7019381F60193FD85913A
S113066093FF81916F01882309F49EC1853239F487
S113067093FD859193FF81916F01853221F4B70138
S113068090E0B1D1E8CF512C312C20E02032A0F4FD
S11306908B3269F030F4803259F0833269F420618E
S11306A02CC08D3239F0803339F4216026C02260A9
S11306B0246023C0286021C027FD27C030ED380FF7
S11306C03A3078F426FF06C0FAE05F9E300D11241C
S11306D0532E13C08AE0389E300D1124332E20622D
S11306E00CC08E3221F426FD5FC1206406C08C3616
S11306F011F4206802C0883641F4F60193FD859117
S113070093FF81916F018111C1CF982F9F7D9554E3
S1130710933028F40C5F1F4FFFE3F9830DC0833639
S113072031F0833771F0833509F057C021C0F801E7
S1130730808189830E5F1F4F44244394512C5401BC
S113074014C03801F2E06F0E711CF801A080B18072
S113075026FF03C0652D70E002C06FEF7FEFC50177
S11307602C8736D12C0183012C852F77222E16C09D
S11307703801F2E06F0E711CF801A080B18026FFF1
S113078003C0652D70E002C06FEF7FEFC5012C87B9
S113079014D12C012C852068222E830123FC19C03E
S11307A0832D90E048165906A0F4B70180E290E04A
S11307B01AD13A94F5CFF50127FC859127FE819152
S11307C05F01B70190E00FD131103A94F1E04F1A74
S11307D051084114510479F7DEC0843611F089368A
S11307E031F5F80127FF07C060817181828193810F
S11307F00C5F1F4F08C060817181072E000C880BAD
S1130800990B0E5F1F4F2F76722E97FF09C090959C
S11308108095709561957F4F8F4F9F4F2068722E02
S11308202AE030E0A40117D1A82EA81843C08537C8
S113083029F42F7EB22E2AE030E025C0F22FF97F72
S1130840BF2E8F36C1F018F4883579F0ADC08037EB
S113085019F0883721F0A8C02F2F2061B22EB4FEE2
S11308600DC08B2D8460B82E09C024FF0AC09F2FB1
S11308709660B92E06C028E030E005C020E130E0E3
S113088002C020E132E0F801B7FE07C06081718147
S1130890828193810C5F1F4F06C06081718180E06B
S11308A090E00E5F1F4FA401D6D0A82EA818FB2DF0
S11308B0FF777F2E76FE0BC0372D3E7FA51450F4B4
S11308C074FE0AC072FC08C0372D3E7E05C0BA2CE7
S11308D0372D03C0BA2C01C0B52C34FF0DC0FE0166
S11308E0EA0DF11D8081803311F4397E09C032FF95
S11308F006C0B394B39404C0832F867809F0B394EC
S113090033FD12C030FF06C05A2CB31418F4530C34
S11309105B18B32CB31460F4B70180E290E03C8719
S113092062D0B3943C85F6CFB31410F43B1801C0E5
S1130930312C34FF11C0B70180E390E03C8753D0E1
S11309403C8532FF16C031FD03C088E790E002C049
S113095088E590E0B7010CC0832F867851F031FF11
S113096002C08BE201C080E237FD8DE2B70190E066
S11309703AD0A51430F4B70180E390E034D05A940F
S1130980F8CFAA94F401EA0DF11D8081B70190E03B
S11309902AD0A110F6CF332009F45DCEB70180E24E
S11309A090E021D03A94F7CFF7018681978102C075
S11309B08FEF9FEF2C96E2E1C8C0FC0105906150D7
S11309C070400110D8F7809590958E0F9F1F089561
S11309D0FC016150704001900110D8F7809590950A
S11309E08E0F9F1F08950F931F93CF93DF93FB01E7
S11309F0238121FD03C08FEF9FEF28C022FF16C083
S1130A0046815781248135814217530744F4A081DC
S1130A10B1819D012F5F3F4F318320838C932681C9
S1130A2037812F5F3F4F3783268310C0EB01092F97
S1130A30182F0084F185E02D0995892BE1F68E812C
S1130A409F8101969F838E83812F902FDF91CF9179
S1130A501F910F910895FA01AA27283051F12031EE
S1130A6081F1E8946F936E7F6E5F7F4F8F4F9F4F3E
S1130A70AF4FB1E03ED0B4E03CD0670F781F891F80
S1130A809A1FA11D680F791F8A1F911DA11D6A0F4E
S1130A90711D811D911DA11D20D009F468943F9101
S1130AA02AE0269F11243019305D3193DEF6CF0100
S1130AB00895462F4770405D4193B3E00FD0C9F7C6
S1130AC0F6CF462F4F70405D4A3318F0495D31FD33
S1130AD04052419302D0A9F7EACFB4E0A695979586
S1130AE0879577956795BA95C9F70097610571055C
S1130AF008959B01AC010A2E0694579547953795A6
S1130B002795BA95C9F7620F731F841F951FA01DFF
S1130B1008952F923F924F925F926F927F928F929D
S1130B209F92AF92BF92CF92DF92EF92FF920F9378
S1130B301F93CF93DF93CDB7DEB7CA1BDB0B0FB682
S1130B40F894DEBF0FBECDBF09942A88398848883F
S1130B505F846E847D848C849B84AA84B984C884D5
S1130B60DF80EE80FD800C811B81AA81B981CE0FCC
S1130B70D11D0FB6F894DEBF0FBECDBFED010895B1
S1070B80F894FFCF13
S1130B8400403F4641726475696E6F486F737A65BD
S1130B946E7A6F723939393939390025642E253022
S1130BA4347500613D3D3D3D3D3D3D3D3D3D3D3D57
S1130BB43D3D3D0A00612D2D2D2D2D2D2D2D2D2D49
S1130BC42D2D2D2D2D3A303A00612D2D2D2D2D2D29
S1110BD42D2D2D2D2D2D2D2D2D3A313A0000D5
S9030000FC
