:1000000012C021C020C01FC01EC01DC01CC01BC00C
:1000100067C063C118C0A2C116C015C014C013C008
:1000200012C011C010C011241FBECFE5D4E0DEBF46
:10003000CDBF20E0A0E6B0E001C01D92A637B20718
:10004000E1F737D1AAC2DCCF83B984E886BF06B610
:1000500007FEFDCF91B1987F81E0983209F480E0EE
:100060000895E199FECF9FBB8EBB6DBBF894E29AD9
:10007000E19A78940895E199FECF9FBB8EBBE09AF8
:100080008DB3089584E986BF06B604FCFDCF0895BC
:1000900024EA34E844E926BF06B607FEFDCF91B155
:1000A000987F983011F09031B1F783B936BF06B61A
:1000B00007FEFDCF91B1987F903211F0983529F469
:1000C00046BF06B604FCFDCFE6CF08958FE289B99E
:1000D00010BC80B5866880BD8AB188698AB90895E8
:1000E0001F920F920FB60F9211248F939F938BE95B
:1000F00090E09DBD8CBD9F918F910F900FBE0F9092
:100100001F901895AB988FEF97E40197F1F700C017
:100110000000AB9A089592982FEF8FEB96E0215054
:1001200080409040E1F700C00000929A0895EADF15
:10013000F2DF81B5886081BD08951F93CF93DF936F
:1001400080916600823030F41BBC1ABC8FB58F776B
:100150008FBD0AC08091660090E085569F4F9BBD81
:100160008ABD8FB580688FBD80916D00823030F47C
:1001700019BC18BC8FB58F7D8FBD5CC080916D00A0
:1001800090E085569F4F99BD88BD8FB580628FBD29
:1001900051C080EA7DDF8981823028F480E054DF1D
:1001A000813029F442C089814FDF8130F1F18A81A9
:1001B000823028F480E048DF813029F436C08A811B
:1001C00043DF813091F18B81823028F480E03CDF85
:1001D000813029F42AC08B8137DF813031F18C8165
:1001E000823028F480E030DF813029F41EC08C8119
:1001F0002BDF8130D1F08D81823028F480E024DF44
:10020000813029F412C08D811FDF813071F08E8121
:10021000823028F480E018DF813029F406C08E8116
:1002200013DF813011F02EDF09C0115009F0B1CF7A
:100230007EDF04C015E0C6E6D0E0ABCFDF91CF9102
:100240001F910895CF93DF931092630083B7856069
:1002500083BF89B7856089BFAB9AA39A929A8A9A1D
:1002600035DF88E680B985E886BF8FB5816A8FBDA6
:100270008EB589608EBD87B3866087BBC0E0D0E055
:10028000CE01F9DEFE01EA59FF4F80832196C83086
:10029000D105B1F752DF2FEF8FE790E72150804073
:1002A0009040E1F700C0000036DF7894DF91CF91F5
:1002B00008952FEF8FE191E0215080409040E1F7C9
:1002C00000C00000BFDF10926300809160008130A9
:1002D000D1F733DF10926000F6CF1F920F920FB666
:1002E0000F9211242F933F934F935F936F937F93BC
:1002F0008F939F93AF93BF93EF93FF93809163008E
:100300008F5F8093630080916100909162000196FD
:10031000909362008093610080916300893708F0B8
:1003200006DF8091610090916200813293400CF071
:10033000FEDEFF91EF91BF91AF919F918F917F91E1
:100340006F915F914F913F912F910F900FBE0F9042
:100350001F9018955D9BFECF8CB908951F920F9248
:100360000FB60F9211242F933F934F935F936F9388
:100370007F938F939F93AF93BF93CF93DF93EF932D
:10038000FF938CB18F3F09F071C010926200109200
:100390006100109264008DE7DDDF2FEF8FE392E0C4
:1003A000215080409040E1F700C0000086E9D2DF94
:1003B0002FEF8FE392E0215080409040E1F700C0A2
:1003C00000008AE0C7DF8FEF97E40197F1F700C0E4
:1003D000000084E1BFDF8FEF97E40197F1F700C0E1
:1003E00000008EE1B7DF8FEF97E40197F1F700C0CF
:1003F000000088E2AFDF8FEF97E40197F1F700C0CC
:10040000000082E3A7DF8FEF97E40197F1F700C0C8
:1004100000008CE39FDF8FEF97E40197F1F700C0B6
:10042000000086E497DF8FEF97E40197F1F700C0B3
:10043000000080E58FDF8FEF97E40197F1F700C0B0
:10044000000083E287DF8FEF97E40197F1F700C0A8
:10045000000084E27FDF8FEF97E40197F1F700C09F
:100460000000109262001092610084C08CB18B3643
:1004700061F4109262001092610081E08093640048
:10048000109265008BE666DF75C08CB18D3761F424
:10049000109262001092610082E0809364001092DA
:1004A00065008DE757DF66C08CB1853608F062C005
:1004B00080916400813021F51092620010926100F9
:1004C000E0916500F0E08CB1EA59FF4F80838091A4
:1004D00065008F5F8093650080916500883049F4E6
:1004E00088E738DF109264001092650081E0809305
:1004F000600010926200109261008CB12BDF3AC054
:10050000809164008230B1F5109262001092610017
:10051000E0916500F0E08CB1E259FF4F808380915B
:1005200065008F5F80936500809165008830E1F4FD
:1005300088E710DF1092640010926500C0E0D0E000
:10054000FE01E259FF4F8081823020F460E0CE014D
:1005500088DD06C0FE01E259FF4F6081CE0181DDDA
:100560002196C830D10561F71092620010926100A7
:100570008CB1F0DEFF91EF91DF91CF91BF91AF9100
:100580009F918F917F916F915F914F913F912F91AB
:0E0590000F900FBE0F901F901895F894FFCF9C
:00000001FF
